{
  "_format": "hh-sol-artifact-1",
  "contractName": "IndexDeployer",
  "sourceName": "contracts/IndexDeployer.sol",
  "abi": [
    {
      "inputs": [],
      "stateMutability": "nonpayable",
      "type": "constructor"
    },
    {
      "anonymous": false,
      "inputs": [
        {
          "indexed": false,
          "internalType": "uint8",
          "name": "version",
          "type": "uint8"
        }
      ],
      "name": "Initialized",
      "type": "event"
    },
    {
      "anonymous": false,
      "inputs": [
        {
          "indexed": false,
          "internalType": "address",
          "name": "child",
          "type": "address"
        },
        {
          "indexed": false,
          "internalType": "string",
          "name": "_name",
          "type": "string"
        },
        {
          "indexed": false,
          "internalType": "string",
          "name": "_symbol",
          "type": "string"
        },
        {
          "indexed": false,
          "internalType": "address[]",
          "name": "_composition",
          "type": "address[]"
        },
        {
          "indexed": false,
          "internalType": "uint256[]",
          "name": "_percentages",
          "type": "uint256[]"
        },
        {
          "indexed": false,
          "internalType": "uint24[]",
          "name": "_poolFees",
          "type": "uint24[]"
        },
        {
          "indexed": false,
          "internalType": "uint256",
          "name": "_managerFee",
          "type": "uint256"
        },
        {
          "indexed": false,
          "internalType": "address",
          "name": "_nativeCurrency",
          "type": "address"
        },
        {
          "indexed": false,
          "internalType": "uint256",
          "name": "_protocolFee",
          "type": "uint256"
        },
        {
          "indexed": false,
          "internalType": "address",
          "name": "_protocolAddress",
          "type": "address"
        },
        {
          "indexed": false,
          "internalType": "address",
          "name": "_manager",
          "type": "address"
        }
      ],
      "name": "LogDeployedIndexContract",
      "type": "event"
    },
    {
      "inputs": [
        {
          "internalType": "string",
          "name": "_name",
          "type": "string"
        },
        {
          "internalType": "string",
          "name": "_symbol",
          "type": "string"
        },
        {
          "internalType": "address[]",
          "name": "_composition",
          "type": "address[]"
        },
        {
          "internalType": "uint256[]",
          "name": "_percentages",
          "type": "uint256[]"
        },
        {
          "internalType": "uint24[]",
          "name": "_poolFees",
          "type": "uint24[]"
        },
        {
          "internalType": "uint256",
          "name": "_managerFee",
          "type": "uint256"
        }
      ],
      "name": "createIndex",
      "outputs": [
        {
          "internalType": "address",
          "name": "",
          "type": "address"
        }
      ],
      "stateMutability": "nonpayable",
      "type": "function"
    },
    {
      "inputs": [],
      "name": "getIndexesLength",
      "outputs": [
        {
          "internalType": "uint256",
          "name": "",
          "type": "uint256"
        }
      ],
      "stateMutability": "view",
      "type": "function"
    },
    {
      "inputs": [],
      "name": "indexContractVersion",
      "outputs": [
        {
          "internalType": "uint256",
          "name": "",
          "type": "uint256"
        }
      ],
      "stateMutability": "view",
      "type": "function"
    },
    {
      "inputs": [
        {
          "internalType": "uint256",
          "name": "",
          "type": "uint256"
        }
      ],
      "name": "indexes",
      "outputs": [
        {
          "internalType": "address",
          "name": "",
          "type": "address"
        }
      ],
      "stateMutability": "view",
      "type": "function"
    },
    {
      "inputs": [
        {
          "internalType": "address",
          "name": "_protocolAddress",
          "type": "address"
        }
      ],
      "name": "initialize",
      "outputs": [],
      "stateMutability": "nonpayable",
      "type": "function"
    },
    {
      "inputs": [],
      "name": "nativeCurrency",
      "outputs": [
        {
          "internalType": "address",
          "name": "",
          "type": "address"
        }
      ],
      "stateMutability": "view",
      "type": "function"
    },
    {
      "inputs": [],
      "name": "protocolAddress",
      "outputs": [
        {
          "internalType": "address",
          "name": "",
          "type": "address"
        }
      ],
      "stateMutability": "view",
      "type": "function"
    },
    {
      "inputs": [],
      "name": "protocolFee",
      "outputs": [
        {
          "internalType": "uint256",
          "name": "",
          "type": "uint256"
        }
      ],
      "stateMutability": "view",
      "type": "function"
    },
    {
      "inputs": [
        {
          "internalType": "address",
          "name": "_nativeCurrency",
          "type": "address"
        }
      ],
      "name": "setNativeCurrency",
      "outputs": [],
      "stateMutability": "nonpayable",
      "type": "function"
    },
    {
      "inputs": [],
      "name": "setNewContractVersion",
      "outputs": [],
      "stateMutability": "nonpayable",
      "type": "function"
    },
    {
      "inputs": [
        {
          "internalType": "address",
          "name": "_protocolAddress",
          "type": "address"
        }
      ],
      "name": "setProtocolAddress",
      "outputs": [],
      "stateMutability": "nonpayable",
      "type": "function"
    },
    {
      "inputs": [
        {
          "internalType": "uint256",
          "name": "_protocolFee",
          "type": "uint256"
        }
      ],
      "name": "setProtocolFee",
      "outputs": [],
      "stateMutability": "nonpayable",
      "type": "function"
    }
  ],
  "bytecode": "0x608060405234801561001057600080fd5b50600061001d6001610081565b90508015610035576000805461ff0019166101001790555b801561007b576000805461ff0019169055604051600181527f7f26b83ff96e1f2b6a682f133852f6798a09c465da95921460cefb38474024989060200160405180910390a15b5061019a565b60008054610100900460ff1615610114578160ff1660011480156100b557506100b33061018b60201b6105161760201c565b155b61010c5760405162461bcd60e51b815260206004820152602e602482015260008051602062003da783398151915260448201526d191e481a5b9a5d1a585b1a5e995960921b60648201526084015b60405180910390fd5b506000919050565b60005460ff8084169116106101715760405162461bcd60e51b815260206004820152602e602482015260008051602062003da783398151915260448201526d191e481a5b9a5d1a585b1a5e995960921b6064820152608401610103565b506000805460ff191660ff92909216919091179055600190565b6001600160a01b03163b151590565b613bfd80620001aa6000396000f3fe60806040523480156200001157600080fd5b5060043610620000c35760003560e01c806392f8eb94116200007a57806392f8eb94146200016d578063b0e21e8a1462000184578063c4d66de8146200018e578063e6d372f314620001a5578063eedce5dc14620001af578063f7c9915514620001c657600080fd5b80630676c1b714620000c8578063321001ec14620000ff57806337e2dd57146200011257806358e470041462000129578063787dce3d14620001425780638494d9a51462000159575b600080fd5b600054620000e2906201000090046001600160a01b031681565b6040516001600160a01b0390911681526020015b60405180910390f35b6001545b604051908152602001620000f6565b620000e262000123366004620007cf565b620001d0565b620001406200013a366004620007ab565b6200036a565b005b6200014062000153366004620008b3565b620003b2565b600454620000e2906001600160a01b031681565b620000e26200017e366004620008b3565b620003d5565b6200010360035481565b620001406200019f366004620007ab565b62000400565b6200010360025481565b62000140620001c0366004620007ab565b620004a3565b62000140620004e3565b6004546000906001600160a01b0316620002315760405162461bcd60e51b815260206004820152601c60248201527f6e617469766543757272656e6379206973206e6f74207365742076310000000060448201526064015b60405180910390fd5b6000878787878787600460009054906101000a90046001600160a01b0316600354600060029054906101000a90046001600160a01b0316336040516200027790620005ba565b6200028c9a9998979695949392919062000a8f565b604051809103906000f080158015620002a9573d6000803e3d6000fd5b506004546003546000546040519394507f0d3299805fdd7c83d6be4b1108f73282876048f53c38fec440b262347806c030936200030d9386938e938e938e938e938e938e936001600160a01b039384169362010000909204909116903390620009c6565b60405180910390a16001805480820182556000919091527fb10e2d527612073b26eecdfd717e6a320cf44b4afac2b0732d9fcbe2b7fa0cf60180546001600160a01b0319166001600160a01b038316179055979650505050505050565b6000546201000090046001600160a01b031633146200038857600080fd5b600080546001600160a01b03909216620100000262010000600160b01b0319909216919091179055565b6000546201000090046001600160a01b03163314620003d057600080fd5b600355565b60018181548110620003e657600080fd5b6000918252602090912001546001600160a01b0316905081565b60006200040e600162000525565b9050801562000427576000805461ff0019166101001790555b6000805462010000600160b01b031916620100006001600160a01b03851602179055606460035562000458620004e3565b80156200049f576000805461ff0019169055604051600181527f7f26b83ff96e1f2b6a682f133852f6798a09c465da95921460cefb38474024989060200160405180910390a15b5050565b6000546201000090046001600160a01b03163314620004c157600080fd5b600480546001600160a01b0319166001600160a01b0392909216919091179055565b6000546201000090046001600160a01b031633146200050157600080fd5b6002546200051190600162000be4565b600255565b6001600160a01b03163b151590565b60008054610100900460ff161562000571578160ff1660011480156200054a5750303b155b620005695760405162461bcd60e51b8152600401620002289062000b3b565b506000919050565b60005460ff8084169116106200059b5760405162461bcd60e51b8152600401620002289062000b3b565b506000805460ff191660ff92909216919091179055600190565b919050565b612fa88062000c2083390190565b80356001600160a01b0381168114620005b557600080fd5b600082601f830112620005f1578081fd5b813560206200060a620006048362000bbd565b62000b89565b80838252828201915082860187848660051b89010111156200062a578586fd5b855b8581101562000653576200064082620005c8565b845292840192908401906001016200062c565b5090979650505050505050565b600082601f83011262000671578081fd5b8135602062000684620006048362000bbd565b80838252828201915082860187848660051b8901011115620006a4578586fd5b855b858110156200065357813562ffffff81168114620006c2578788fd5b84529284019290840190600101620006a6565b600082601f830112620006e6578081fd5b81356020620006f9620006048362000bbd565b80838252828201915082860187848660051b890101111562000719578586fd5b855b8581101562000653578135845292840192908401906001016200071b565b600082601f8301126200074a578081fd5b813567ffffffffffffffff81111562000767576200076762000c09565b6200077c601f8201601f191660200162000b89565b81815284602083860101111562000791578283fd5b816020850160208301379081016020019190915292915050565b600060208284031215620007bd578081fd5b620007c882620005c8565b9392505050565b60008060008060008060c08789031215620007e8578182fd5b863567ffffffffffffffff8082111562000800578384fd5b6200080e8a838b0162000739565b9750602089013591508082111562000824578384fd5b620008328a838b0162000739565b9650604089013591508082111562000848578384fd5b620008568a838b01620005e0565b955060608901359150808211156200086c578384fd5b6200087a8a838b01620006d5565b9450608089013591508082111562000890578384fd5b506200089f89828a0162000660565b92505060a087013590509295509295509295565b600060208284031215620008c5578081fd5b5035919050565b6000815180845260208085019450808401835b83811015620009065781516001600160a01b031687529582019590820190600101620008df565b509495945050505050565b6000815180845260208085019450808401835b838110156200090657815162ffffff168752958201959082019060010162000924565b6000815180845260208085019450808401835b8381101562000906578151875295820195908201906001016200095a565b60008151808452815b818110156200099f5760208185018101518683018201520162000981565b81811115620009b15782602083870101525b50601f01601f19169290920160200192915050565b6001600160a01b038c8116825261016060208301819052600091620009ee8483018f62000978565b9150838203604085015262000a04828e62000978565b9150838203606085015262000a1a828d620008cc565b9150838203608085015262000a30828c62000947565b915083820360a085015262000a46828b62000911565b92508860c085015280881660e085015286610100850152808616610120850152505062000a7f6101408301846001600160a01b03169052565b9c9b505050505050505050505050565b600061014080835262000aa58184018e62000978565b9050828103602084015262000abb818d62000978565b9050828103604084015262000ad1818c620008cc565b9050828103606084015262000ae7818b62000947565b9050828103608084015262000afd818a62000911565b60a084019890985250506001600160a01b0394851660c082015260e08101939093529083166101008301529091166101209091015295945050505050565b6020808252602e908201527f496e697469616c697a61626c653a20636f6e747261637420697320616c72656160408201526d191e481a5b9a5d1a585b1a5e995960921b606082015260800190565b604051601f8201601f1916810167ffffffffffffffff8111828210171562000bb55762000bb562000c09565b604052919050565b600067ffffffffffffffff82111562000bda5762000bda62000c09565b5060051b60200190565b6000821982111562000c0457634e487b7160e01b81526011600452602481fd5b500190565b634e487b7160e01b600052604160045260246000fdfe6080604052606b80546001600160a01b03191690556001606d5560006070553480156200002b57600080fd5b5060405162002fa838038062002fa88339810160408190526200004e91620008c9565b60006200005c6001620002c4565b9050801562000075576000805461ff0019166101001790555b620000818b8b620003d7565b8851620000969060659060208c0190620004de565b508751620000ac9060669060208b019062000548565b508651620000c29060679060208a019062000586565b506069869055606c80546001600160a01b038088166001600160a01b03199283161790925560688054858416908316179055606a869055606b805492861692909116919091179055875189511480156200011d575086518951145b620001a65760405162461bcd60e51b815260206004820152604860248201527f636f6d706f736974696f6e2c20646563696d616c732c2070657263656e74616760448201527f65732c20616e6420706f6f6c46656573206d757374206265207468652073616d6064820152670ca40d8cadccee8d60c31b608482015260a4015b60405180910390fd5b6000805b89518110156200020157898181518110620001d557634e487b7160e01b600052603260045260246000fd5b602002602001015182620001ea919062000a4a565b915080620001f88162000aa2565b915050620001aa565b5080612710146200026b5760405162461bcd60e51b815260206004820152602d60248201527f70657263656e7461676573206d7573742061646420757020746f20313030303060448201526c20626173697320706f696e747360981b60648201526084016200019d565b508015620002b3576000805461ff0019169055604051600181527f7f26b83ff96e1f2b6a682f133852f6798a09c465da95921460cefb38474024989060200160405180910390a15b505050505050505050505062000aec565b60008054610100900460ff161562000359578160ff166001148015620002fd5750620002fb306200044360201b620013471760201c565b155b620003515760405162461bcd60e51b815260206004820152602e602482015260008051602062002f6883398151915260448201526d191e481a5b9a5d1a585b1a5e995960921b60648201526084016200019d565b506000919050565b60005460ff808416911610620003b85760405162461bcd60e51b815260206004820152602e602482015260008051602062002f6883398151915260448201526d191e481a5b9a5d1a585b1a5e995960921b60648201526084016200019d565b506000805460ff191660ff92909216919091179055600190565b919050565b600054610100900460ff16620004335760405162461bcd60e51b815260206004820152602b602482015260008051602062002f8883398151915260448201526a6e697469616c697a696e6760a81b60648201526084016200019d565b6200043f828262000452565b5050565b6001600160a01b03163b151590565b600054610100900460ff16620004ae5760405162461bcd60e51b815260206004820152602b602482015260008051602062002f8883398151915260448201526a6e697469616c697a696e6760a81b60648201526084016200019d565b8151620004c390603690602085019062000634565b508051620004d990603790602084019062000634565b505050565b82805482825590600052602060002090810192821562000536579160200282015b828111156200053657825182546001600160a01b0319166001600160a01b03909116178255602090920191600190910190620004ff565b5062000544929150620006b0565b5090565b82805482825590600052602060002090810192821562000536579160200282015b828111156200053657825182559160200191906001019062000569565b82805482825590600052602060002090600901600a90048101928215620005365791602002820160005b83821115620005f457835183826101000a81548162ffffff021916908362ffffff1602179055509260200192600301602081600201049283019260010302620005b0565b8015620006255782816101000a81549062ffffff0219169055600301602081600201049283019260010302620005f4565b505062000544929150620006b0565b828054620006429062000a65565b90600052602060002090601f01602090048101928262000666576000855562000536565b82601f106200068157805160ff191683800117855562000536565b828001600101855582156200053657918201828111156200053657825182559160200191906001019062000569565b5b80821115620005445760008155600101620006b1565b80516001600160a01b0381168114620003d257600080fd5b600082601f830112620006f0578081fd5b8151602062000709620007038362000a24565b620009f1565b80838252828201915082860187848660051b890101111562000729578586fd5b855b8581101562000752576200073f82620006c7565b845292840192908401906001016200072b565b5090979650505050505050565b600082601f83011262000770578081fd5b8151602062000783620007038362000a24565b80838252828201915082860187848660051b8901011115620007a3578586fd5b855b858110156200075257815162ffffff81168114620007c1578788fd5b84529284019290840190600101620007a5565b600082601f830112620007e5578081fd5b81516020620007f8620007038362000a24565b80838252828201915082860187848660051b890101111562000818578586fd5b855b8581101562000752578151845292840192908401906001016200081a565b600082601f83011262000849578081fd5b81516001600160401b0381111562000865576200086562000ad6565b60206200087b601f8301601f19168201620009f1565b82815285828487010111156200088f578384fd5b835b83811015620008ae57858101830151828201840152820162000891565b83811115620008bf57848385840101525b5095945050505050565b6000806000806000806000806000806101408b8d031215620008e9578586fd5b8a516001600160401b038082111562000900578788fd5b6200090e8e838f0162000838565b9b5060208d015191508082111562000924578788fd5b620009328e838f0162000838565b9a5060408d015191508082111562000948578788fd5b620009568e838f01620006df565b995060608d01519150808211156200096c578788fd5b6200097a8e838f01620007d4565b985060808d015191508082111562000990578788fd5b506200099f8d828e016200075f565b96505060a08b01519450620009b760c08c01620006c7565b935060e08b01519250620009cf6101008c01620006c7565b9150620009e06101208c01620006c7565b90509295989b9194979a5092959850565b604051601f8201601f191681016001600160401b038111828210171562000a1c5762000a1c62000ad6565b604052919050565b60006001600160401b0382111562000a405762000a4062000ad6565b5060051b60200190565b6000821982111562000a605762000a6062000ac0565b500190565b600181811c9082168062000a7a57607f821691505b6020821081141562000a9c57634e487b7160e01b600052602260045260246000fd5b50919050565b600060001982141562000ab95762000ab962000ac0565b5060010190565b634e487b7160e01b600052601160045260246000fd5b634e487b7160e01b600052604160045260246000fd5b61246c8062000afc6000396000f3fe6080604052600436106101b75760003560e01c80638d6a80ad116100ec578063cf73a1bc1161008a578063dd62ed3e11610064578063dd62ed3e146104db578063f26f87ad146104fb578063f303956414610511578063f88583861461053e57600080fd5b8063cf73a1bc1461047b578063d58f02631461049b578063db006a75146104bb57600080fd5b8063a457c2d7116100c6578063a457c2d71461041d578063a6f2ae3a1461043d578063a9059cbb14610445578063b0e21e8a1461046557600080fd5b80638d6a80ad146103d057806395d89b41146103f25780639c7632fc1461040757600080fd5b806323b872dd1161015957806332fe7b261161013357806332fe7b26146103485780633950935114610370578063476343ee1461039057806370a082311461039a57600080fd5b806323b872dd146102f65780632ae9c60014610316578063313ce5671461032c57600080fd5b8063095ea7b311610195578063095ea7b31461023b578063112367581461026b57806318160ddd1461029f5780631b54cc88146102be57600080fd5b8063029447cc146101bc5780630676c1b7146101f957806306fdde0314610219575b600080fd5b3480156101c857600080fd5b50606c546101dc906001600160a01b031681565b6040516001600160a01b0390911681526020015b60405180910390f35b34801561020557600080fd5b50606b546101dc906001600160a01b031681565b34801561022557600080fd5b5061022e61055e565b6040516101f09190612303565b34801561024757600080fd5b5061025b6102563660046121b8565b6105f0565b60405190151581526020016101f0565b34801561027757600080fd5b5061028b610286366004612201565b610608565b60405162ffffff90911681526020016101f0565b3480156102ab57600080fd5b506035545b6040519081526020016101f0565b3480156102ca57600080fd5b506102b06102d936600461214b565b606e60209081526000928352604080842090915290825290205481565b34801561030257600080fd5b5061025b61031136600461217d565b610641565b34801561032257600080fd5b506102b0606d5481565b34801561033857600080fd5b50604051601281526020016101f0565b34801561035457600080fd5b506101dc73e592427a0aece92de3edee1f18e0157c0586156481565b34801561037c57600080fd5b5061025b61038b3660046121b8565b61068b565b6103986106ad565b005b3480156103a657600080fd5b506102b06103b5366004612131565b6001600160a01b031660009081526033602052604090205490565b3480156103dc57600080fd5b506103e5610750565b6040516101f091906122f0565b3480156103fe57600080fd5b5061022e610847565b34801561041357600080fd5b506102b060695481565b34801561042957600080fd5b5061025b6104383660046121b8565b610856565b6103986108dc565b34801561045157600080fd5b5061025b6104603660046121b8565b610ecb565b34801561047157600080fd5b506102b0606a5481565b34801561048757600080fd5b506068546101dc906001600160a01b031681565b3480156104a757600080fd5b506101dc6104b6366004612201565b610ef5565b3480156104c757600080fd5b506103986104d6366004612201565b610f1f565b3480156104e757600080fd5b506102b06104f636600461214b565b6112fb565b34801561050757600080fd5b506102b060705481565b34801561051d57600080fd5b506102b061052c366004612131565b606f6020526000908152604090205481565b34801561054a57600080fd5b506102b0610559366004612201565b611326565b60606036805461056d906123d0565b80601f0160208091040260200160405190810160405280929190818152602001828054610599906123d0565b80156105e65780601f106105bb576101008083540402835291602001916105e6565b820191906000526020600020905b8154815290600101906020018083116105c957829003601f168201915b5050505050905090565b6000336105fe818585611356565b5060019392505050565b6067818154811061061857600080fd5b90600052602060002090600a9182820401919006600302915054906101000a900462ffffff1681565b6001600160a01b0383166000908152603360205260408120543361066686828661147a565b6106718686866114f4565b61067d868684876116c2565b6001925050505b9392505050565b6000336105fe81858561069e83836112fb565b6106a89190612336565b611356565b6068546001600160a01b0316331461070c5760405162461bcd60e51b815260206004820181905260248201527f6d757374206265206d616e6167657220746f207769746864726177206665657360448201526064015b60405180910390fd5b6068546070546040516001600160a01b039092169181156108fc0291906000818181858888f19350505050158015610748573d6000803e3d6000fd5b506000607055565b60655460609060009067ffffffffffffffff81111561077f57634e487b7160e01b600052604160045260246000fd5b6040519080825280602002602001820160405280156107a8578160200160208202803683370190505b50905060005b60655481101561084157606f6000606583815481106107dd57634e487b7160e01b600052603260045260246000fd5b60009182526020808320909101546001600160a01b03168352820192909252604001902054825183908390811061082457634e487b7160e01b600052603260045260246000fd5b60209081029190910101528061083981612405565b9150506107ae565b50919050565b60606037805461056d906123d0565b6000338161086482866112fb565b9050838110156108c45760405162461bcd60e51b815260206004820152602560248201527f45524332303a2064656372656173656420616c6c6f77616e63652062656c6f77604482015264207a65726f60d81b6064820152608401610703565b6108d18286868403611356565b506001949350505050565b600034116109255760405162461bcd60e51b81526020600482015260166024820152756d7573742073656e642066756e647320746f2062757960501b6044820152606401610703565b606554600090819067ffffffffffffffff81111561095357634e487b7160e01b600052604160045260246000fd5b60405190808252806020026020018201604052801561097c578160200160208202803683370190505b5060655490915060009067ffffffffffffffff8111156109ac57634e487b7160e01b600052604160045260246000fd5b6040519080825280602002602001820160405280156109d5578160200160208202803683370190505b5090506000612710606954346109eb919061236e565b6109f5919061234e565b9050600061271060695434610a0a919061236e565b610a14919061234e565b9050600081610a23843461238d565b610a2d919061238d565b905060005b606554811015610b4b5781610a496127108261234e565b610a559061271061236e565b14610ab75760405162461bcd60e51b815260206004820152602c60248201527f66756e64732073656e7420697320746f6f20736d616c6c20746f2063616c637560448201526b6c61746520616d6f756e747360a01b6064820152608401610703565b600061271060668381548110610add57634e487b7160e01b600052603260045260246000fd5b906000526020600020015484610af3919061236e565b610afd919061234e565b905080878381518110610b2057634e487b7160e01b600052603260045260246000fd5b6020908102919091010152610b358189612336565b9750508080610b4390612405565b915050610a32565b5060005b606554811015610e11576000868281518110610b7b57634e487b7160e01b600052603260045260246000fd5b6020026020010151905060008111610be15760405162461bcd60e51b8152602060048201526024808201527f616d6f756e7420746f20627579206d75737420626520677265617465722074686044820152630616e20360e41b6064820152608401610703565b6000610c6c8260658581548110610c0857634e487b7160e01b600052603260045260246000fd5b600091825260209091200154606780546001600160a01b039092169187908110610c4257634e487b7160e01b600052603260045260246000fd5b90600052602060002090600a91828204019190066003029054906101000a900462ffffff16611a33565b336000908152606e6020526040812060658054939450849391929187908110610ca557634e487b7160e01b600052603260045260246000fd5b60009182526020808320909101546001600160a01b03168352820192909252604001902054610cd49190612336565b336000908152606e602052604081206065805491929187908110610d0857634e487b7160e01b600052603260045260246000fd5b60009182526020808320909101546001600160a01b0316835282019290925260400190205586518190889085908110610d5157634e487b7160e01b600052603260045260246000fd5b60200260200101818152505080606f600060658681548110610d8357634e487b7160e01b600052603260045260246000fd5b60009182526020808320909101546001600160a01b03168352820192909252604001902054610db29190612336565b606f600060658681548110610dd757634e487b7160e01b600052603260045260246000fd5b60009182526020808320909101546001600160a01b0316835282019290925260400190205550819050610e0981612405565b915050610b4f565b506000610e1e828861238d565b606b549091506001600160a01b03166108fc610e3a8386612336565b6040518115909202916000818181858888f19350505050158015610e62573d6000803e3d6000fd5b5083607054610e719190612336565b607055610e7e3388611c3e565b7f36d12a77a01321a4d5f4235f151af6e60eeef96f9666ed0f7306c5ea98164a8a338887610eaa610750565b604051610eba94939291906122b7565b60405180910390a150505050505050565b33600081815260336020526040812054909190610ee98286866114f4565b6108d1828683876116c2565b60658181548110610f0557600080fd5b6000918252602090912001546001600160a01b0316905081565b60008111610f6f5760405162461bcd60e51b815260206004820152601d60248201527f616d6f756e74206d7573742062652067726561746572207468616e20300000006044820152606401610703565b33600090815260336020526040902054811115610fe35760405162461bcd60e51b815260206004820152602c60248201527f616d6f756e74206d757374206265206c657373207468616e206f72206571756160448201526b6c20746f2062616c616e636560a01b6064820152608401610703565b336000908152603360205260408120549082905b60655481101561129957336000908152606e602052604081206065805486929184918690811061103757634e487b7160e01b600052603260045260246000fd5b60009182526020808320909101546001600160a01b03168352820192909252604001902054611066908561236e565b336000908152606e60205260408120606580549192918790811061109a57634e487b7160e01b600052603260045260246000fd5b60009182526020808320909101546001600160a01b031683528201929092526040019020546110c9908761236e565b6110d3919061238d565b6110dd919061234e565b336000908152606e60205260408120606580549394509192849284918790811061111757634e487b7160e01b600052603260045260246000fd5b60009182526020808320909101546001600160a01b03168352820192909252604001902054611146919061238d565b905061118a33826065868154811061116e57634e487b7160e01b600052603260045260246000fd5b6000918252602090912001546001600160a01b03169190611d1d565b80606f6000606586815481106111b057634e487b7160e01b600052603260045260246000fd5b60009182526020808320909101546001600160a01b031683528201929092526040019020546111df919061238d565b606f60006065868154811061120457634e487b7160e01b600052603260045260246000fd5b60009182526020808320909101546001600160a01b03168352828101939093526040918201812093909355338352606e909152812060658054859391908790811061125f57634e487b7160e01b600052603260045260246000fd5b60009182526020808320909101546001600160a01b031683528201929092526040019020555081905061129181612405565b915050610ff7565b506112a43384611d74565b336000818152603360205260409020547f6b921527f65949c80fab346e1e330b442e353b32e7b29f428d3d0c7766dd915291906112df610750565b6040516112ee93929190612287565b60405180910390a1505050565b6001600160a01b03918216600090815260346020908152604080832093909416825291909152205490565b6066818154811061133657600080fd5b600091825260209091200154905081565b6001600160a01b03163b151590565b6001600160a01b0383166113b85760405162461bcd60e51b8152602060048201526024808201527f45524332303a20617070726f76652066726f6d20746865207a65726f206164646044820152637265737360e01b6064820152608401610703565b6001600160a01b0382166114195760405162461bcd60e51b815260206004820152602260248201527f45524332303a20617070726f766520746f20746865207a65726f206164647265604482015261737360f01b6064820152608401610703565b6001600160a01b0383811660008181526034602090815260408083209487168084529482529182902085905590518481527f8c5be1e5ebec7d5bd14f71427d1e84f3dd0314c0f7b2291e5b200ac8c7c3b925910160405180910390a3505050565b600061148684846112fb565b905060001981146114ee57818110156114e15760405162461bcd60e51b815260206004820152601d60248201527f45524332303a20696e73756666696369656e7420616c6c6f77616e63650000006044820152606401610703565b6114ee8484848403611356565b50505050565b6001600160a01b0383166115585760405162461bcd60e51b815260206004820152602560248201527f45524332303a207472616e736665722066726f6d20746865207a65726f206164604482015264647265737360d81b6064820152608401610703565b6001600160a01b0382166115ba5760405162461bcd60e51b815260206004820152602360248201527f45524332303a207472616e7366657220746f20746865207a65726f206164647260448201526265737360e81b6064820152608401610703565b6001600160a01b038316600090815260336020526040902054818110156116325760405162461bcd60e51b815260206004820152602660248201527f45524332303a207472616e7366657220616d6f756e7420657863656564732062604482015265616c616e636560d01b6064820152608401610703565b6001600160a01b03808516600090815260336020526040808220858503905591851681529081208054849290611669908490612336565b92505081905550826001600160a01b0316846001600160a01b03167fddf252ad1be2c89b69c2b068fc378daa952ba7f163c4a11628f55a4df523b3ef846040516116b591815260200190565b60405180910390a36114ee565b60005b606554811015611a2c57336000908152606e602052604081206065805486929184918690811061170557634e487b7160e01b600052603260045260246000fd5b60009182526020808320909101546001600160a01b03168352820192909252604001902054611734908561236e565b336000908152606e60205260408120606580549192918790811061176857634e487b7160e01b600052603260045260246000fd5b60009182526020808320909101546001600160a01b03168352820192909252604001902054611797908761236e565b6117a1919061238d565b6117ab919061234e565b336000908152606e6020526040812060658054939450919284928491879081106117e557634e487b7160e01b600052603260045260246000fd5b60009182526020808320909101546001600160a01b03168352820192909252604001902054611814919061238d565b90506000811161187c5760405162461bcd60e51b815260206004820152602d60248201527f616d6f756e7420746f207472616e736665722077697468696e207661756c742060448201526c185c99481d1bdbc81cdb585b1b609a1b6064820152608401610703565b6001600160a01b0386166000908152606e602052604081206065805484939190879081106118ba57634e487b7160e01b600052603260045260246000fd5b60009182526020808320909101546001600160a01b031683528201929092526040019020546118e99190612336565b6001600160a01b0387166000908152606e60205260408120606580549192918790811061192657634e487b7160e01b600052603260045260246000fd5b60009182526020808320909101546001600160a01b039081168452838201949094526040928301822094909455918a168252606e90925290812060658054849391908790811061198657634e487b7160e01b600052603260045260246000fd5b60009182526020808320909101546001600160a01b031683528201929092526040019020546119b5919061238d565b6001600160a01b0388166000908152606e6020526040812060658054919291879081106119f257634e487b7160e01b600052603260045260246000fd5b60009182526020808320909101546001600160a01b0316835282019290925260400190205550819050611a2481612405565b9150506116c5565b5050505050565b6000808411611a845760405162461bcd60e51b815260206004820152601a60248201527f4d7573742070617373206e6f6e20302045544820616d6f756e740000000000006044820152606401610703565b60008262ffffff1611611ad95760405162461bcd60e51b815260206004820152601a60248201527f4d7573742070617373206e6f6e20302066656520616d6f756e740000000000006044820152606401610703565b6000611ae642600f612336565b606c5460408051610100810182526001600160a01b03928316808252928816602082015262ffffff87168183015230606082018190526080820185905260a082018a9052600060c0830181905260e08301819052925163414bf38960e01b8152949550929382919073e592427a0aece92de3edee1f18e0157c058615649063414bf389908c90611bde90859060040181516001600160a01b03908116825260208084015182169083015260408084015162ffffff16908301526060808401518216908301526080808401519083015260a0838101519083015260c0808401519083015260e09283015116918101919091526101000190565b6020604051808303818588803b158015611bf757600080fd5b505af1158015611c0b573d6000803e3d6000fd5b50505050506040513d601f19601f82011682018060405250810190611c309190612219565b9a9950505050505050505050565b6001600160a01b038216611c945760405162461bcd60e51b815260206004820152601f60248201527f45524332303a206d696e7420746f20746865207a65726f2061646472657373006044820152606401610703565b8060356000828254611ca69190612336565b90915550506001600160a01b03821660009081526033602052604081208054839290611cd3908490612336565b90915550506040518181526001600160a01b038316906000907fddf252ad1be2c89b69c2b068fc378daa952ba7f163c4a11628f55a4df523b3ef9060200160405180910390a35050565b604080516001600160a01b038416602482015260448082018490528251808303909101815260649091019091526020810180516001600160e01b031663a9059cbb60e01b179052611d6f908490611ec2565b505050565b6001600160a01b038216611dd45760405162461bcd60e51b815260206004820152602160248201527f45524332303a206275726e2066726f6d20746865207a65726f206164647265736044820152607360f81b6064820152608401610703565b6001600160a01b03821660009081526033602052604090205481811015611e485760405162461bcd60e51b815260206004820152602260248201527f45524332303a206275726e20616d6f756e7420657863656564732062616c616e604482015261636560f01b6064820152608401610703565b6001600160a01b0383166000908152603360205260408120838303905560358054849290611e7790849061238d565b90915550506040518281526000906001600160a01b038516907fddf252ad1be2c89b69c2b068fc378daa952ba7f163c4a11628f55a4df523b3ef9060200160405180910390a3505050565b6000611f17826040518060400160405280602081526020017f5361666545524332303a206c6f772d6c6576656c2063616c6c206661696c6564815250856001600160a01b0316611f949092919063ffffffff16565b805190915015611d6f5780806020019051810190611f3591906121e1565b611d6f5760405162461bcd60e51b815260206004820152602a60248201527f5361666545524332303a204552433230206f7065726174696f6e20646964206e6044820152691bdd081cdd58d8d9595960b21b6064820152608401610703565b6060611fa38484600085611fab565b949350505050565b60608247101561200c5760405162461bcd60e51b815260206004820152602660248201527f416464726573733a20696e73756666696369656e742062616c616e636520666f6044820152651c8818d85b1b60d21b6064820152608401610703565b6001600160a01b0385163b6120635760405162461bcd60e51b815260206004820152601d60248201527f416464726573733a2063616c6c20746f206e6f6e2d636f6e74726163740000006044820152606401610703565b600080866001600160a01b0316858760405161207f919061226b565b60006040518083038185875af1925050503d80600081146120bc576040519150601f19603f3d011682016040523d82523d6000602084013e6120c1565b606091505b50915091506120d18282866120dc565b979650505050505050565b606083156120eb575081610684565b8251156120fb5782518084602001fd5b8160405162461bcd60e51b81526004016107039190612303565b80356001600160a01b038116811461212c57600080fd5b919050565b600060208284031215612142578081fd5b61068482612115565b6000806040838503121561215d578081fd5b61216683612115565b915061217460208401612115565b90509250929050565b600080600060608486031215612191578081fd5b61219a84612115565b92506121a860208501612115565b9150604084013590509250925092565b600080604083850312156121ca578182fd5b6121d383612115565b946020939093013593505050565b6000602082840312156121f2578081fd5b81518015158114610684578182fd5b600060208284031215612212578081fd5b5035919050565b60006020828403121561222a578081fd5b5051919050565b6000815180845260208085019450808401835b8381101561226057815187529582019590820190600101612244565b509495945050505050565b6000825161227d8184602087016123a4565b9190910192915050565b60018060a01b03841681528260208201526060604082015260006122ae6060830184612231565b95945050505050565b60018060a01b03851681528360208201526080604082015260006122de6080830185612231565b82810360608401526120d18185612231565b6020815260006106846020830184612231565b60208152600082518060208401526123228160408501602087016123a4565b601f01601f19169190910160400192915050565b6000821982111561234957612349612420565b500190565b60008261236957634e487b7160e01b81526012600452602481fd5b500490565b600081600019048311821515161561238857612388612420565b500290565b60008282101561239f5761239f612420565b500390565b60005b838110156123bf5781810151838201526020016123a7565b838111156114ee5750506000910152565b600181811c908216806123e457607f821691505b6020821081141561084157634e487b7160e01b600052602260045260246000fd5b600060001982141561241957612419612420565b5060010190565b634e487b7160e01b600052601160045260246000fdfea26469706673582212202008c7d2e838684cd890524fae9d4e589ab24f6c88ee8c924e2b1849feba242d64736f6c63430008040033496e697469616c697a61626c653a20636f6e747261637420697320616c726561496e697469616c697a61626c653a20636f6e7472616374206973206e6f742069a2646970667358221220015810df5ee694d7bc9221b552432bfe7a301969e5c8148ac951110a8637994564736f6c63430008040033496e697469616c697a61626c653a20636f6e747261637420697320616c726561",
  "linkReferences": {},
  "deployedLinkReferences": {}
}