{
  "_format": "hh-sol-artifact-1",
  "contractName": "IndexDeployer",
  "sourceName": "contracts/IndexDeployer.sol",
  "abi": [
    {
      "inputs": [],
      "stateMutability": "nonpayable",
      "type": "constructor"
    },
    {
      "anonymous": false,
      "inputs": [
        {
          "indexed": false,
          "internalType": "uint8",
          "name": "version",
          "type": "uint8"
        }
      ],
      "name": "Initialized",
      "type": "event"
    },
    {
      "anonymous": false,
      "inputs": [
        {
          "indexed": false,
          "internalType": "address",
          "name": "child",
          "type": "address"
        }
      ],
      "name": "LogDeployedIndexContract",
      "type": "event"
    },
    {
      "inputs": [
        {
          "internalType": "string",
          "name": "_name",
          "type": "string"
        },
        {
          "internalType": "string",
          "name": "_symbol",
          "type": "string"
        },
        {
          "internalType": "address[]",
          "name": "_composition",
          "type": "address[]"
        },
        {
          "internalType": "uint256[]",
          "name": "_percentages",
          "type": "uint256[]"
        },
        {
          "internalType": "uint24[]",
          "name": "_poolFees",
          "type": "uint24[]"
        },
        {
          "internalType": "uint256",
          "name": "_managerFee",
          "type": "uint256"
        }
      ],
      "name": "createIndex",
      "outputs": [
        {
          "internalType": "address",
          "name": "",
          "type": "address"
        }
      ],
      "stateMutability": "nonpayable",
      "type": "function"
    },
    {
      "inputs": [],
      "name": "getIndexesLength",
      "outputs": [
        {
          "internalType": "uint256",
          "name": "",
          "type": "uint256"
        }
      ],
      "stateMutability": "view",
      "type": "function"
    },
    {
      "inputs": [],
      "name": "indexContractVersion",
      "outputs": [
        {
          "internalType": "uint256",
          "name": "",
          "type": "uint256"
        }
      ],
      "stateMutability": "view",
      "type": "function"
    },
    {
      "inputs": [
        {
          "internalType": "uint256",
          "name": "",
          "type": "uint256"
        }
      ],
      "name": "indexes",
      "outputs": [
        {
          "internalType": "address",
          "name": "",
          "type": "address"
        }
      ],
      "stateMutability": "view",
      "type": "function"
    },
    {
      "inputs": [
        {
          "internalType": "address",
          "name": "_protocolAddress",
          "type": "address"
        }
      ],
      "name": "initialize",
      "outputs": [],
      "stateMutability": "nonpayable",
      "type": "function"
    },
    {
      "inputs": [],
      "name": "nativeCurrency",
      "outputs": [
        {
          "internalType": "address",
          "name": "",
          "type": "address"
        }
      ],
      "stateMutability": "view",
      "type": "function"
    },
    {
      "inputs": [],
      "name": "protocolAddress",
      "outputs": [
        {
          "internalType": "address",
          "name": "",
          "type": "address"
        }
      ],
      "stateMutability": "view",
      "type": "function"
    },
    {
      "inputs": [],
      "name": "protocolFee",
      "outputs": [
        {
          "internalType": "uint256",
          "name": "",
          "type": "uint256"
        }
      ],
      "stateMutability": "view",
      "type": "function"
    },
    {
      "inputs": [
        {
          "internalType": "address",
          "name": "_nativeCurrency",
          "type": "address"
        }
      ],
      "name": "setNativeCurrency",
      "outputs": [],
      "stateMutability": "nonpayable",
      "type": "function"
    },
    {
      "inputs": [],
      "name": "setNewContractVersion",
      "outputs": [],
      "stateMutability": "nonpayable",
      "type": "function"
    },
    {
      "inputs": [
        {
          "internalType": "address",
          "name": "_protocolAddress",
          "type": "address"
        }
      ],
      "name": "setProtocolAddress",
      "outputs": [],
      "stateMutability": "nonpayable",
      "type": "function"
    },
    {
      "inputs": [
        {
          "internalType": "uint256",
          "name": "_protocolFee",
          "type": "uint256"
        }
      ],
      "name": "setProtocolFee",
      "outputs": [],
      "stateMutability": "nonpayable",
      "type": "function"
    }
  ],
  "bytecode": "0x60806040523480156200001157600080fd5b506000620000266001620000ae60201b60201c565b905080156200004b576001600060016101000a81548160ff0219169083151502179055505b8015620000a75760008060016101000a81548160ff0219169083151502179055507f7f26b83ff96e1f2b6a682f133852f6798a09c465da95921460cefb384740249860016040516200009e91906200020f565b60405180910390a15b50620002cf565b60008060019054906101000a900460ff1615620001385760018260ff16148015620000ec5750620000ea30620001b460201b620007e21760201c565b155b6200012e576040517f08c379a000000000000000000000000000000000000000000000000000000000815260040162000125906200022c565b60405180910390fd5b60009050620001af565b8160ff1660008054906101000a900460ff1660ff161062000190576040517f08c379a000000000000000000000000000000000000000000000000000000000815260040162000187906200022c565b60405180910390fd5b816000806101000a81548160ff021916908360ff160217905550600190505b919050565b6000808273ffffffffffffffffffffffffffffffffffffffff163b119050919050565b620001e2816200026c565b82525050565b6000620001f7602e836200024e565b9150620002048262000280565b604082019050919050565b6000602082019050620002266000830184620001d7565b92915050565b600060208201905081810360008301526200024781620001e8565b9050919050565b600082825260208201905092915050565b600060ff82169050919050565b600062000279826200025f565b9050919050565b7f496e697469616c697a61626c653a20636f6e747261637420697320616c72656160008201527f647920696e697469616c697a6564000000000000000000000000000000000000602082015250565b615d0f80620002df6000396000f3fe60806040523480156200001157600080fd5b5060043610620000c45760003560e01c806392f8eb94116200007b57806392f8eb9414620001a5578063b0e21e8a14620001db578063c4d66de814620001fd578063e6d372f3146200021d578063eedce5dc146200023f578063f7c99155146200025f57620000c4565b80630676c1b714620000c9578063321001ec14620000eb57806337e2dd57146200010d57806358e470041462000143578063787dce3d14620001635780638494d9a51462000183575b600080fd5b620000d36200026b565b604051620000e2919062000f97565b60405180910390f35b620000f562000291565b604051620001049190620010e8565b60405180910390f35b6200012b600480360381019062000125919062000bd7565b6200029e565b6040516200013a919062000f97565b60405180910390f35b6200016160048036038101906200015b919062000bab565b62000473565b005b6200018160048036038101906200017b919062000cea565b62000512565b005b6200018d62000577565b6040516200019c919062000f97565b60405180910390f35b620001c36004803603810190620001bd919062000cea565b6200059d565b604051620001d2919062000f97565b60405180910390f35b620001e5620005dd565b604051620001f49190620010e8565b60405180910390f35b6200021b600480360381019062000215919062000bab565b620005e3565b005b62000227620006c9565b604051620002369190620010e8565b60405180910390f35b6200025d600480360381019062000257919062000bab565b620006cf565b005b620002696200076e565b005b600060029054906101000a900473ffffffffffffffffffffffffffffffffffffffff1681565b6000600180549050905090565b60008073ffffffffffffffffffffffffffffffffffffffff16600460009054906101000a900473ffffffffffffffffffffffffffffffffffffffff1673ffffffffffffffffffffffffffffffffffffffff16141562000334576040517f08c379a00000000000000000000000000000000000000000000000000000000081526004016200032b90620010c6565b60405180910390fd5b6000878787878787600460009054906101000a900473ffffffffffffffffffffffffffffffffffffffff16600354600060029054906101000a900473ffffffffffffffffffffffffffffffffffffffff1633604051620003949062000900565b620003a99a9998979695949392919062000fd1565b604051809103906000f080158015620003c6573d6000803e3d6000fd5b5090507fd2c412b7fda55a002eaf4c77cc4accf336368388dc7084706b0edc55025520a781604051620003fa919062000f97565b60405180910390a16001819080600181540180825580915050600190039060005260206000200160009091909190916101000a81548173ffffffffffffffffffffffffffffffffffffffff021916908373ffffffffffffffffffffffffffffffffffffffff160217905550809150509695505050505050565b600060029054906101000a900473ffffffffffffffffffffffffffffffffffffffff1673ffffffffffffffffffffffffffffffffffffffff163373ffffffffffffffffffffffffffffffffffffffff1614620004ce57600080fd5b80600060026101000a81548173ffffffffffffffffffffffffffffffffffffffff021916908373ffffffffffffffffffffffffffffffffffffffff16021790555050565b600060029054906101000a900473ffffffffffffffffffffffffffffffffffffffff1673ffffffffffffffffffffffffffffffffffffffff163373ffffffffffffffffffffffffffffffffffffffff16146200056d57600080fd5b8060038190555050565b600460009054906101000a900473ffffffffffffffffffffffffffffffffffffffff1681565b60018181548110620005ae57600080fd5b906000526020600020016000915054906101000a900473ffffffffffffffffffffffffffffffffffffffff1681565b60035481565b6000620005f1600162000805565b9050801562000616576001600060016101000a81548160ff0219169083151502179055505b81600060026101000a81548173ffffffffffffffffffffffffffffffffffffffff021916908373ffffffffffffffffffffffffffffffffffffffff1602179055506064600381905550620006696200076e565b8015620006c55760008060016101000a81548160ff0219169083151502179055507f7f26b83ff96e1f2b6a682f133852f6798a09c465da95921460cefb38474024986001604051620006bc919062000fb4565b60405180910390a15b5050565b60025481565b600060029054906101000a900473ffffffffffffffffffffffffffffffffffffffff1673ffffffffffffffffffffffffffffffffffffffff163373ffffffffffffffffffffffffffffffffffffffff16146200072a57600080fd5b80600460006101000a81548173ffffffffffffffffffffffffffffffffffffffff021916908373ffffffffffffffffffffffffffffffffffffffff16021790555050565b600060029054906101000a900473ffffffffffffffffffffffffffffffffffffffff1673ffffffffffffffffffffffffffffffffffffffff163373ffffffffffffffffffffffffffffffffffffffff1614620007c957600080fd5b6001600254620007da9190620012b8565b600281905550565b6000808273ffffffffffffffffffffffffffffffffffffffff163b119050919050565b60008060019054906101000a900460ff1615620008845760018260ff161480156200083857506200083630620007e2565b155b6200087a576040517f08c379a00000000000000000000000000000000000000000000000000000000081526004016200087190620010a4565b60405180910390fd5b60009050620008fb565b8160ff1660008054906101000a900460ff1660ff1610620008dc576040517f08c379a0000000000000000000000000000000000000000000000000000000008152600401620008d390620010a4565b60405180910390fd5b816000806101000a81548160ff021916908360ff160217905550600190505b919050565b6147a6806200153483390190565b6000620009256200091f846200112e565b62001105565b905080838252602082019050828560208602820111156200094557600080fd5b60005b858110156200097957816200095e888262000ab2565b84526020840193506020830192505060018101905062000948565b5050509392505050565b60006200099a62000994846200115d565b62001105565b90508083825260208201905082856020860282011115620009ba57600080fd5b60005b85811015620009ee5781620009d3888262000b7d565b845260208401935060208301925050600181019050620009bd565b5050509392505050565b600062000a0f62000a09846200118c565b62001105565b9050808382526020820190508285602086028201111562000a2f57600080fd5b60005b8581101562000a63578162000a48888262000b94565b84526020840193506020830192505060018101905062000a32565b5050509392505050565b600062000a8462000a7e84620011bb565b62001105565b90508281526020810184848401111562000a9d57600080fd5b62000aaa84828562001383565b509392505050565b60008135905062000ac381620014e5565b92915050565b600082601f83011262000adb57600080fd5b813562000aed8482602086016200090e565b91505092915050565b600082601f83011262000b0857600080fd5b813562000b1a84826020860162000983565b91505092915050565b600082601f83011262000b3557600080fd5b813562000b47848260208601620009f8565b91505092915050565b600082601f83011262000b6257600080fd5b813562000b7484826020860162000a6d565b91505092915050565b60008135905062000b8e81620014ff565b92915050565b60008135905062000ba58162001519565b92915050565b60006020828403121562000bbe57600080fd5b600062000bce8482850162000ab2565b91505092915050565b60008060008060008060c0878903121562000bf157600080fd5b600087013567ffffffffffffffff81111562000c0c57600080fd5b62000c1a89828a0162000b50565b965050602087013567ffffffffffffffff81111562000c3857600080fd5b62000c4689828a0162000b50565b955050604087013567ffffffffffffffff81111562000c6457600080fd5b62000c7289828a0162000ac9565b945050606087013567ffffffffffffffff81111562000c9057600080fd5b62000c9e89828a0162000b23565b935050608087013567ffffffffffffffff81111562000cbc57600080fd5b62000cca89828a0162000af6565b92505060a062000cdd89828a0162000b94565b9150509295509295509295565b60006020828403121562000cfd57600080fd5b600062000d0d8482850162000b94565b91505092915050565b600062000d24838362000d64565b60208301905092915050565b600062000d3e838362000f64565b60208301905092915050565b600062000d58838362000f75565b60208301905092915050565b62000d6f8162001315565b82525050565b62000d808162001315565b82525050565b600062000d938262001221565b62000d9f818562001274565b935062000dac83620011f1565b8060005b8381101562000de357815162000dc7888262000d16565b975062000dd4836200124d565b92505060018101905062000db0565b5085935050505092915050565b600062000dfd826200122c565b62000e09818562001285565b935062000e168362001201565b8060005b8381101562000e4d57815162000e31888262000d30565b975062000e3e836200125a565b92505060018101905062000e1a565b5085935050505092915050565b600062000e678262001237565b62000e73818562001296565b935062000e808362001211565b8060005b8381101562000eb757815162000e9b888262000d4a565b975062000ea88362001267565b92505060018101905062000e84565b5085935050505092915050565b62000ecf816200136f565b82525050565b600062000ee28262001242565b62000eee8185620012a7565b935062000f0081856020860162001392565b62000f0b816200145c565b840191505092915050565b600062000f25602e83620012a7565b915062000f32826200146d565b604082019050919050565b600062000f4c601c83620012a7565b915062000f5982620014bc565b602082019050919050565b62000f6f8162001349565b82525050565b62000f808162001358565b82525050565b62000f918162001358565b82525050565b600060208201905062000fae600083018462000d75565b92915050565b600060208201905062000fcb600083018462000ec4565b92915050565b600061014082019050818103600083015262000fee818d62000ed5565b9050818103602083015262001004818c62000ed5565b905081810360408301526200101a818b62000d86565b9050818103606083015262001030818a62000e5a565b9050818103608083015262001046818962000df0565b90506200105760a083018862000f86565b6200106660c083018762000d75565b6200107560e083018662000f86565b6200108561010083018562000d75565b6200109561012083018462000d75565b9b9a5050505050505050505050565b60006020820190508181036000830152620010bf8162000f16565b9050919050565b60006020820190508181036000830152620010e18162000f3d565b9050919050565b6000602082019050620010ff600083018462000f86565b92915050565b60006200111162001124565b90506200111f8282620013c8565b919050565b6000604051905090565b600067ffffffffffffffff8211156200114c576200114b6200142d565b5b602082029050602081019050919050565b600067ffffffffffffffff8211156200117b576200117a6200142d565b5b602082029050602081019050919050565b600067ffffffffffffffff821115620011aa57620011a96200142d565b5b602082029050602081019050919050565b600067ffffffffffffffff821115620011d957620011d86200142d565b5b620011e4826200145c565b9050602081019050919050565b6000819050602082019050919050565b6000819050602082019050919050565b6000819050602082019050919050565b600081519050919050565b600081519050919050565b600081519050919050565b600081519050919050565b6000602082019050919050565b6000602082019050919050565b6000602082019050919050565b600082825260208201905092915050565b600082825260208201905092915050565b600082825260208201905092915050565b600082825260208201905092915050565b6000620012c58262001358565b9150620012d28362001358565b9250827fffffffffffffffffffffffffffffffffffffffffffffffffffffffffffffffff038211156200130a5762001309620013fe565b5b828201905092915050565b6000620013228262001329565b9050919050565b600073ffffffffffffffffffffffffffffffffffffffff82169050919050565b600062ffffff82169050919050565b6000819050919050565b600060ff82169050919050565b60006200137c8262001362565b9050919050565b82818337600083830152505050565b60005b83811015620013b257808201518184015260208101905062001395565b83811115620013c2576000848401525b50505050565b620013d3826200145c565b810181811067ffffffffffffffff82111715620013f557620013f46200142d565b5b80604052505050565b7f4e487b7100000000000000000000000000000000000000000000000000000000600052601160045260246000fd5b7f4e487b7100000000000000000000000000000000000000000000000000000000600052604160045260246000fd5b6000601f19601f8301169050919050565b7f496e697469616c697a61626c653a20636f6e747261637420697320616c72656160008201527f647920696e697469616c697a6564000000000000000000000000000000000000602082015250565b7f6e617469766543757272656e6379206973206e6f742073657420763100000000600082015250565b620014f08162001315565b8114620014fc57600080fd5b50565b6200150a8162001349565b81146200151657600080fd5b50565b620015248162001358565b81146200153057600080fd5b5056fe60806040526000606b60006101000a81548173ffffffffffffffffffffffffffffffffffffffff021916908373ffffffffffffffffffffffffffffffffffffffff1602179055506001606d556000606f553480156200005d57600080fd5b50604051620047a6380380620047a6833981810160405281019062000083919062000a65565b60006200009760016200036a60201b60201c565b90508015620000bc576001600060016101000a81548160ff0219169083151502179055505b620000ce8b8b6200047060201b60201c565b8860659080519060200190620000e692919062000583565b508760669080519060200190620000ff92919062000612565b5086606790805190602001906200011892919062000664565b508560698190555084606c60006101000a81548173ffffffffffffffffffffffffffffffffffffffff021916908373ffffffffffffffffffffffffffffffffffffffff16021790555081606860006101000a81548173ffffffffffffffffffffffffffffffffffffffff021916908373ffffffffffffffffffffffffffffffffffffffff16021790555083606a8190555082606b60006101000a81548173ffffffffffffffffffffffffffffffffffffffff021916908373ffffffffffffffffffffffffffffffffffffffff16021790555087518951148015620001fd575086518951145b6200023f576040517f08c379a0000000000000000000000000000000000000000000000000000000008152600401620002369062000cbe565b60405180910390fd5b6000805b8951811015620002b45789818151811062000287577f4e487b7100000000000000000000000000000000000000000000000000000000600052603260045260246000fd5b6020026020010151826200029c919062000e21565b91508080620002ab9062000f8e565b91505062000243565b506127108114620002fc576040517f08c379a0000000000000000000000000000000000000000000000000000000008152600401620002f39062000c9c565b60405180910390fd5b508015620003595760008060016101000a81548160ff0219169083151502179055507f7f26b83ff96e1f2b6a682f133852f6798a09c465da95921460cefb3847402498600160405162000350919062000c7f565b60405180910390a15b50505050505050505050506200122a565b60008060019054906101000a900460ff1615620003f45760018260ff16148015620003a85750620003a630620004d860201b6200150a1760201c565b155b620003ea576040517f08c379a0000000000000000000000000000000000000000000000000000000008152600401620003e19062000ce0565b60405180910390fd5b600090506200046b565b8160ff1660008054906101000a900460ff1660ff16106200044c576040517f08c379a0000000000000000000000000000000000000000000000000000000008152600401620004439062000ce0565b60405180910390fd5b816000806101000a81548160ff021916908360ff160217905550600190505b919050565b600060019054906101000a900460ff16620004c2576040517f08c379a0000000000000000000000000000000000000000000000000000000008152600401620004b99062000d02565b60405180910390fd5b620004d48282620004fb60201b60201c565b5050565b6000808273ffffffffffffffffffffffffffffffffffffffff163b119050919050565b600060019054906101000a900460ff166200054d576040517f08c379a0000000000000000000000000000000000000000000000000000000008152600401620005449062000d02565b60405180910390fd5b81603690805190602001906200056592919062000718565b5080603790805190602001906200057e92919062000718565b505050565b828054828255906000526020600020908101928215620005ff579160200282015b82811115620005fe5782518260006101000a81548173ffffffffffffffffffffffffffffffffffffffff021916908373ffffffffffffffffffffffffffffffffffffffff16021790555091602001919060010190620005a4565b5b5090506200060e9190620007a9565b5090565b82805482825590600052602060002090810192821562000651579160200282015b828111156200065057825182559160200191906001019062000633565b5b509050620006609190620007a9565b5090565b82805482825590600052602060002090600901600a90048101928215620007055791602002820160005b83821115620006d257835183826101000a81548162ffffff021916908362ffffff16021790555092602001926003016020816002010492830192600103026200068e565b8015620007035782816101000a81549062ffffff0219169055600301602081600201049283019260010302620006d2565b505b509050620007149190620007a9565b5090565b828054620007269062000f22565b90600052602060002090601f0160209004810192826200074a576000855562000796565b82601f106200076557805160ff191683800117855562000796565b8280016001018555821562000796579182015b828111156200079557825182559160200191906001019062000778565b5b509050620007a59190620007a9565b5090565b5b80821115620007c4576000816000905550600101620007aa565b5090565b6000620007df620007d98462000d4d565b62000d24565b90508083825260208201905082856020860282011115620007ff57600080fd5b60005b858110156200083357816200081888826200096c565b84526020840193506020830192505060018101905062000802565b5050509392505050565b6000620008546200084e8462000d7c565b62000d24565b905080838252602082019050828560208602820111156200087457600080fd5b60005b85811015620008a857816200088d888262000a37565b84526020840193506020830192505060018101905062000877565b5050509392505050565b6000620008c9620008c38462000dab565b62000d24565b90508083825260208201905082856020860282011115620008e957600080fd5b60005b858110156200091d578162000902888262000a4e565b845260208401935060208301925050600181019050620008ec565b5050509392505050565b60006200093e620009388462000dda565b62000d24565b9050828152602081018484840111156200095757600080fd5b6200096484828562000eec565b509392505050565b6000815190506200097d81620011dc565b92915050565b600082601f8301126200099557600080fd5b8151620009a7848260208601620007c8565b91505092915050565b600082601f830112620009c257600080fd5b8151620009d48482602086016200083d565b91505092915050565b600082601f830112620009ef57600080fd5b815162000a01848260208601620008b2565b91505092915050565b600082601f83011262000a1c57600080fd5b815162000a2e84826020860162000927565b91505092915050565b60008151905062000a4881620011f6565b92915050565b60008151905062000a5f8162001210565b92915050565b6000806000806000806000806000806101408b8d03121562000a8657600080fd5b60008b015167ffffffffffffffff81111562000aa157600080fd5b62000aaf8d828e0162000a0a565b9a505060208b015167ffffffffffffffff81111562000acd57600080fd5b62000adb8d828e0162000a0a565b99505060408b015167ffffffffffffffff81111562000af957600080fd5b62000b078d828e0162000983565b98505060608b015167ffffffffffffffff81111562000b2557600080fd5b62000b338d828e01620009dd565b97505060808b015167ffffffffffffffff81111562000b5157600080fd5b62000b5f8d828e01620009b0565b96505060a062000b728d828e0162000a4e565b95505060c062000b858d828e016200096c565b94505060e062000b988d828e0162000a4e565b93505061010062000bac8d828e016200096c565b92505061012062000bc08d828e016200096c565b9150509295989b9194979a5092959850565b62000bdd8162000ed8565b82525050565b600062000bf2602d8362000e10565b915062000bff826200107a565b604082019050919050565b600062000c1960488362000e10565b915062000c2682620010c9565b606082019050919050565b600062000c40602e8362000e10565b915062000c4d826200113e565b604082019050919050565b600062000c67602b8362000e10565b915062000c74826200118d565b604082019050919050565b600060208201905062000c96600083018462000bd2565b92915050565b6000602082019050818103600083015262000cb78162000be3565b9050919050565b6000602082019050818103600083015262000cd98162000c0a565b9050919050565b6000602082019050818103600083015262000cfb8162000c31565b9050919050565b6000602082019050818103600083015262000d1d8162000c58565b9050919050565b600062000d3062000d43565b905062000d3e828262000f58565b919050565b6000604051905090565b600067ffffffffffffffff82111562000d6b5762000d6a6200103a565b5b602082029050602081019050919050565b600067ffffffffffffffff82111562000d9a5762000d996200103a565b5b602082029050602081019050919050565b600067ffffffffffffffff82111562000dc95762000dc86200103a565b5b602082029050602081019050919050565b600067ffffffffffffffff82111562000df85762000df76200103a565b5b62000e038262001069565b9050602081019050919050565b600082825260208201905092915050565b600062000e2e8262000ec1565b915062000e3b8362000ec1565b9250827fffffffffffffffffffffffffffffffffffffffffffffffffffffffffffffffff0382111562000e735762000e7262000fdc565b5b828201905092915050565b600062000e8b8262000e92565b9050919050565b600073ffffffffffffffffffffffffffffffffffffffff82169050919050565b600062ffffff82169050919050565b6000819050919050565b600060ff82169050919050565b600062000ee58262000ecb565b9050919050565b60005b8381101562000f0c57808201518184015260208101905062000eef565b8381111562000f1c576000848401525b50505050565b6000600282049050600182168062000f3b57607f821691505b6020821081141562000f525762000f516200100b565b5b50919050565b62000f638262001069565b810181811067ffffffffffffffff8211171562000f855762000f846200103a565b5b80604052505050565b600062000f9b8262000ec1565b91507fffffffffffffffffffffffffffffffffffffffffffffffffffffffffffffffff82141562000fd15762000fd062000fdc565b5b600182019050919050565b7f4e487b7100000000000000000000000000000000000000000000000000000000600052601160045260246000fd5b7f4e487b7100000000000000000000000000000000000000000000000000000000600052602260045260246000fd5b7f4e487b7100000000000000000000000000000000000000000000000000000000600052604160045260246000fd5b6000601f19601f8301169050919050565b7f70657263656e7461676573206d7573742061646420757020746f20313030303060008201527f20626173697320706f696e747300000000000000000000000000000000000000602082015250565b7f636f6d706f736974696f6e2c20646563696d616c732c2070657263656e74616760008201527f65732c20616e6420706f6f6c46656573206d757374206265207468652073616d60208201527f65206c656e677468000000000000000000000000000000000000000000000000604082015250565b7f496e697469616c697a61626c653a20636f6e747261637420697320616c72656160008201527f647920696e697469616c697a6564000000000000000000000000000000000000602082015250565b7f496e697469616c697a61626c653a20636f6e7472616374206973206e6f74206960008201527f6e697469616c697a696e67000000000000000000000000000000000000000000602082015250565b620011e78162000e7e565b8114620011f357600080fd5b50565b620012018162000eb2565b81146200120d57600080fd5b50565b6200121b8162000ec1565b81146200122757600080fd5b50565b61356c806200123a6000396000f3fe6080604052600436106101815760003560e01c806370a08231116100d1578063b0e21e8a1161008a578063d58f026311610064578063d58f026314610572578063dd62ed3e146105af578063f26f87ad146105ec578063f88583861461061757610181565b8063b0e21e8a14610505578063be040fb014610530578063cf73a1bc1461054757610181565b806370a08231146103ee57806395d89b411461042b5780639c7632fc14610456578063a457c2d714610481578063a6f2ae3a146104be578063a9059cbb146104c857610181565b80631b54cc881161013e578063313ce56711610118578063313ce5671461035157806332fe7b261461037c57806339509351146103a7578063476343ee146103e457610181565b80631b54cc88146102ac57806323b872dd146102e95780632ae9c6001461032657610181565b8063029447cc146101865780630676c1b7146101b157806306fdde03146101dc578063095ea7b314610207578063112367581461024457806318160ddd14610281575b600080fd5b34801561019257600080fd5b5061019b610654565b6040516101a891906128f6565b60405180910390f35b3480156101bd57600080fd5b506101c661067a565b6040516101d39190612911565b60405180910390f35b3480156101e857600080fd5b506101f16106a0565b6040516101fe91906129c9565b60405180910390f35b34801561021357600080fd5b5061022e60048036038101906102299190612368565b610732565b60405161023b9190612993565b60405180910390f35b34801561025057600080fd5b5061026b600480360381019061026691906123cd565b610755565b6040516102789190612c67565b60405180910390f35b34801561028d57600080fd5b5061029661078e565b6040516102a39190612c82565b60405180910390f35b3480156102b857600080fd5b506102d360048036038101906102ce91906122dd565b610798565b6040516102e09190612c82565b60405180910390f35b3480156102f557600080fd5b50610310600480360381019061030b9190612319565b6107bd565b60405161031d9190612993565b60405180910390f35b34801561033257600080fd5b5061033b6107ec565b6040516103489190612c82565b60405180910390f35b34801561035d57600080fd5b506103666107f2565b6040516103739190612c9d565b60405180910390f35b34801561038857600080fd5b506103916107fb565b60405161039e91906129ae565b60405180910390f35b3480156103b357600080fd5b506103ce60048036038101906103c99190612368565b610813565b6040516103db9190612993565b60405180910390f35b6103ec61084a565b005b3480156103fa57600080fd5b50610415600480360381019061041091906122b4565b61094f565b6040516104229190612c82565b60405180910390f35b34801561043757600080fd5b50610440610998565b60405161044d91906129c9565b60405180910390f35b34801561046257600080fd5b5061046b610a2a565b6040516104789190612c82565b60405180910390f35b34801561048d57600080fd5b506104a860048036038101906104a39190612368565b610a30565b6040516104b59190612993565b60405180910390f35b6104c6610aa7565b005b3480156104d457600080fd5b506104ef60048036038101906104ea9190612368565b6111e3565b6040516104fc9190612993565b60405180910390f35b34801561051157600080fd5b5061051a611206565b6040516105279190612c82565b60405180910390f35b34801561053c57600080fd5b5061054561120c565b005b34801561055357600080fd5b5061055c6113f4565b6040516105699190612911565b60405180910390f35b34801561057e57600080fd5b50610599600480360381019061059491906123cd565b61141a565b6040516105a691906128f6565b60405180910390f35b3480156105bb57600080fd5b506105d660048036038101906105d191906122dd565b611459565b6040516105e39190612c82565b60405180910390f35b3480156105f857600080fd5b506106016114e0565b60405161060e9190612c82565b60405180910390f35b34801561062357600080fd5b5061063e600480360381019061063991906123cd565b6114e6565b60405161064b9190612c82565b60405180910390f35b606c60009054906101000a900473ffffffffffffffffffffffffffffffffffffffff1681565b606b60009054906101000a900473ffffffffffffffffffffffffffffffffffffffff1681565b6060603680546106af90612f05565b80601f01602080910402602001604051908101604052809291908181526020018280546106db90612f05565b80156107285780601f106106fd57610100808354040283529160200191610728565b820191906000526020600020905b81548152906001019060200180831161070b57829003601f168201915b5050505050905090565b60008061073d61152d565b905061074a818585611535565b600191505092915050565b6067818154811061076557600080fd5b90600052602060002090600a9182820401919006600302915054906101000a900462ffffff1681565b6000603554905090565b606e602052816000526040600020602052806000526040600020600091509150505481565b6000806107c861152d565b90506107d5858285611700565b6107e085858561178c565b60019150509392505050565b606d5481565b60006012905090565b73e592427a0aece92de3edee1f18e0157c0586156481565b60008061081e61152d565b905061083f8185856108308589611459565b61083a9190612d23565b611535565b600191505092915050565b606860009054906101000a900473ffffffffffffffffffffffffffffffffffffffff1673ffffffffffffffffffffffffffffffffffffffff163373ffffffffffffffffffffffffffffffffffffffff16146108da576040517f08c379a00000000000000000000000000000000000000000000000000000000081526004016108d190612a8b565b60405180910390fd5b606860009054906101000a900473ffffffffffffffffffffffffffffffffffffffff1673ffffffffffffffffffffffffffffffffffffffff166108fc606f549081150290604051600060405180830381858888f19350505050158015610944573d6000803e3d6000fd5b506000606f81905550565b6000603360008373ffffffffffffffffffffffffffffffffffffffff1673ffffffffffffffffffffffffffffffffffffffff168152602001908152602001600020549050919050565b6060603780546109a790612f05565b80601f01602080910402602001604051908101604052809291908181526020018280546109d390612f05565b8015610a205780601f106109f557610100808354040283529160200191610a20565b820191906000526020600020905b815481529060010190602001808311610a0357829003601f168201915b5050505050905090565b60695481565b600080610a3b61152d565b90506000610a498286611459565b905083811015610a8e576040517f08c379a0000000000000000000000000000000000000000000000000000000008152600401610a8590612c0b565b60405180910390fd5b610a9b8286868403611535565b60019250505092915050565b60003411610aea576040517f08c379a0000000000000000000000000000000000000000000000000000000008152600401610ae190612a4b565b60405180910390fd5b60008060658054905067ffffffffffffffff811115610b32577f4e487b7100000000000000000000000000000000000000000000000000000000600052604160045260246000fd5b604051908082528060200260200182016040528015610b605781602001602082028036833780820191505090505b509050600060658054905067ffffffffffffffff811115610baa577f4e487b7100000000000000000000000000000000000000000000000000000000600052604160045260246000fd5b604051908082528060200260200182016040528015610bd85781602001602082028036833780820191505090505b509050600061271060695434610bee9190612daa565b610bf89190612d79565b9050600061271060695434610c0d9190612daa565b610c179190612d79565b90506000818334610c289190612e04565b610c329190612e04565b905060005b606580549050811015610d6757816127108084610c549190612d79565b610c5e9190612daa565b14610c9e576040517f08c379a0000000000000000000000000000000000000000000000000000000008152600401610c9590612b2b565b60405180910390fd5b600061271060668381548110610cdd577f4e487b7100000000000000000000000000000000000000000000000000000000600052603260045260246000fd5b906000526020600020015484610cf39190612daa565b610cfd9190612d79565b905080878381518110610d39577f4e487b7100000000000000000000000000000000000000000000000000000000600052603260045260246000fd5b6020026020010181815250508088610d519190612d23565b9750508080610d5f90612f37565b915050610c37565b5060005b6065805490508110156110fc576000868281518110610db3577f4e487b7100000000000000000000000000000000000000000000000000000000600052603260045260246000fd5b6020026020010151905060008111610e00576040517f08c379a0000000000000000000000000000000000000000000000000000000008152600401610df790612b8b565b60405180910390fd5b6000610ecf8260658581548110610e40577f4e487b7100000000000000000000000000000000000000000000000000000000600052603260045260246000fd5b9060005260206000200160009054906101000a900473ffffffffffffffffffffffffffffffffffffffff1660678681548110610ea5577f4e487b7100000000000000000000000000000000000000000000000000000000600052603260045260246000fd5b90600052602060002090600a91828204019190066003029054906101000a900462ffffff16611a10565b905080606e60003373ffffffffffffffffffffffffffffffffffffffff1673ffffffffffffffffffffffffffffffffffffffff168152602001908152602001600020600060658681548110610f4d577f4e487b7100000000000000000000000000000000000000000000000000000000600052603260045260246000fd5b9060005260206000200160009054906101000a900473ffffffffffffffffffffffffffffffffffffffff1673ffffffffffffffffffffffffffffffffffffffff1673ffffffffffffffffffffffffffffffffffffffff16815260200190815260200160002054610fbd9190612d23565b606e60003373ffffffffffffffffffffffffffffffffffffffff1673ffffffffffffffffffffffffffffffffffffffff168152602001908152602001600020600060658681548110611038577f4e487b7100000000000000000000000000000000000000000000000000000000600052603260045260246000fd5b9060005260206000200160009054906101000a900473ffffffffffffffffffffffffffffffffffffffff1673ffffffffffffffffffffffffffffffffffffffff1673ffffffffffffffffffffffffffffffffffffffff16815260200190815260200160002081905550808784815181106110db577f4e487b7100000000000000000000000000000000000000000000000000000000600052603260045260246000fd5b602002602001018181525050505080806110f490612f37565b915050610d6b565b506000818761110b9190612e04565b9050606b60009054906101000a900473ffffffffffffffffffffffffffffffffffffffff1673ffffffffffffffffffffffffffffffffffffffff166108fc82856111559190612d23565b9081150290604051600060405180830381858888f19350505050158015611180573d6000803e3d6000fd5b5083606f5461118f9190612d23565b606f8190555061119f3388611c3c565b7f73199e7136278eaed9f75b2ced5e0261c8145979d37b0102feb98313c378b2373388876040516111d293929190612955565b60405180910390a150505050505050565b6000806111ee61152d565b90506111fb81858561178c565b600191505092915050565b606a5481565b60005b60658054905081101561139e5761138b33606e60006065858154811061125e577f4e487b7100000000000000000000000000000000000000000000000000000000600052603260045260246000fd5b9060005260206000200160009054906101000a900473ffffffffffffffffffffffffffffffffffffffff1673ffffffffffffffffffffffffffffffffffffffff1673ffffffffffffffffffffffffffffffffffffffff16815260200190815260200160002060003373ffffffffffffffffffffffffffffffffffffffff1673ffffffffffffffffffffffffffffffffffffffff168152602001908152602001600020546065848154811061133b577f4e487b7100000000000000000000000000000000000000000000000000000000600052603260045260246000fd5b9060005260206000200160009054906101000a900473ffffffffffffffffffffffffffffffffffffffff1673ffffffffffffffffffffffffffffffffffffffff16611d9d9092919063ffffffff16565b808061139690612f37565b91505061120f565b506113b1336113ac3361094f565b611e23565b7f4896181ff8f4543cc00db9fe9b6fb7e6f032b7eb772c72ab1ec1b4d2e03b9369336113dc3361094f565b6040516113ea92919061292c565b60405180910390a1565b606860009054906101000a900473ffffffffffffffffffffffffffffffffffffffff1681565b6065818154811061142a57600080fd5b906000526020600020016000915054906101000a900473ffffffffffffffffffffffffffffffffffffffff1681565b6000603460008473ffffffffffffffffffffffffffffffffffffffff1673ffffffffffffffffffffffffffffffffffffffff16815260200190815260200160002060008373ffffffffffffffffffffffffffffffffffffffff1673ffffffffffffffffffffffffffffffffffffffff16815260200190815260200160002054905092915050565b606f5481565b606681815481106114f657600080fd5b906000526020600020016000915090505481565b6000808273ffffffffffffffffffffffffffffffffffffffff163b119050919050565b600033905090565b600073ffffffffffffffffffffffffffffffffffffffff168373ffffffffffffffffffffffffffffffffffffffff1614156115a5576040517f08c379a000000000000000000000000000000000000000000000000000000000815260040161159c90612b4b565b60405180910390fd5b600073ffffffffffffffffffffffffffffffffffffffff168273ffffffffffffffffffffffffffffffffffffffff161415611615576040517f08c379a000000000000000000000000000000000000000000000000000000000815260040161160c90612a2b565b60405180910390fd5b80603460008573ffffffffffffffffffffffffffffffffffffffff1673ffffffffffffffffffffffffffffffffffffffff16815260200190815260200160002060008473ffffffffffffffffffffffffffffffffffffffff1673ffffffffffffffffffffffffffffffffffffffff168152602001908152602001600020819055508173ffffffffffffffffffffffffffffffffffffffff168373ffffffffffffffffffffffffffffffffffffffff167f8c5be1e5ebec7d5bd14f71427d1e84f3dd0314c0f7b2291e5b200ac8c7c3b925836040516116f39190612c82565b60405180910390a3505050565b600061170c8484611459565b90507fffffffffffffffffffffffffffffffffffffffffffffffffffffffffffffffff81146117865781811015611778576040517f08c379a000000000000000000000000000000000000000000000000000000000815260040161176f90612a6b565b60405180910390fd5b6117858484848403611535565b5b50505050565b600073ffffffffffffffffffffffffffffffffffffffff168373ffffffffffffffffffffffffffffffffffffffff1614156117fc576040517f08c379a00000000000000000000000000000000000000000000000000000000081526004016117f390612b0b565b60405180910390fd5b600073ffffffffffffffffffffffffffffffffffffffff168273ffffffffffffffffffffffffffffffffffffffff16141561186c576040517f08c379a0000000000000000000000000000000000000000000000000000000008152600401611863906129eb565b60405180910390fd5b611877838383611ffc565b6000603360008573ffffffffffffffffffffffffffffffffffffffff1673ffffffffffffffffffffffffffffffffffffffff168152602001908152602001600020549050818110156118fe576040517f08c379a00000000000000000000000000000000000000000000000000000000081526004016118f590612aab565b60405180910390fd5b818103603360008673ffffffffffffffffffffffffffffffffffffffff1673ffffffffffffffffffffffffffffffffffffffff1681526020019081526020016000208190555081603360008573ffffffffffffffffffffffffffffffffffffffff1673ffffffffffffffffffffffffffffffffffffffff16815260200190815260200160002060008282546119939190612d23565b925050819055508273ffffffffffffffffffffffffffffffffffffffff168473ffffffffffffffffffffffffffffffffffffffff167fddf252ad1be2c89b69c2b068fc378daa952ba7f163c4a11628f55a4df523b3ef846040516119f79190612c82565b60405180910390a3611a0a848484612001565b50505050565b6000808411611a54576040517f08c379a0000000000000000000000000000000000000000000000000000000008152600401611a4b90612beb565b60405180910390fd5b60008262ffffff1611611a9c576040517f08c379a0000000000000000000000000000000000000000000000000000000008152600401611a9390612bcb565b60405180910390fd5b6000600f42611aab9190612d23565b90506000606c60009054906101000a900473ffffffffffffffffffffffffffffffffffffffff169050600030905060008060006040518061010001604052808673ffffffffffffffffffffffffffffffffffffffff1681526020018a73ffffffffffffffffffffffffffffffffffffffff1681526020018962ffffff1681526020018573ffffffffffffffffffffffffffffffffffffffff1681526020018781526020018b81526020018373ffffffffffffffffffffffffffffffffffffffff1681526020018473ffffffffffffffffffffffffffffffffffffffff16815250905073e592427a0aece92de3edee1f18e0157c0586156473ffffffffffffffffffffffffffffffffffffffff1663414bf3898b836040518363ffffffff1660e01b8152600401611bdb9190612c4b565b6020604051808303818588803b158015611bf457600080fd5b505af1158015611c08573d6000803e3d6000fd5b50505050506040513d601f19601f82011682018060405250810190611c2d91906123f6565b96505050505050509392505050565b600073ffffffffffffffffffffffffffffffffffffffff168273ffffffffffffffffffffffffffffffffffffffff161415611cac576040517f08c379a0000000000000000000000000000000000000000000000000000000008152600401611ca390612c2b565b60405180910390fd5b611cb860008383611ffc565b8060356000828254611cca9190612d23565b9250508190555080603360008473ffffffffffffffffffffffffffffffffffffffff1673ffffffffffffffffffffffffffffffffffffffff1681526020019081526020016000206000828254611d209190612d23565b925050819055508173ffffffffffffffffffffffffffffffffffffffff16600073ffffffffffffffffffffffffffffffffffffffff167fddf252ad1be2c89b69c2b068fc378daa952ba7f163c4a11628f55a4df523b3ef83604051611d859190612c82565b60405180910390a3611d9960008383612001565b5050565b611e1e8363a9059cbb60e01b8484604051602401611dbc92919061292c565b604051602081830303815290604052907bffffffffffffffffffffffffffffffffffffffffffffffffffffffff19166020820180517bffffffffffffffffffffffffffffffffffffffffffffffffffffffff8381831617835250505050612006565b505050565b600073ffffffffffffffffffffffffffffffffffffffff168273ffffffffffffffffffffffffffffffffffffffff161415611e93576040517f08c379a0000000000000000000000000000000000000000000000000000000008152600401611e8a90612aeb565b60405180910390fd5b611e9f82600083611ffc565b6000603360008473ffffffffffffffffffffffffffffffffffffffff1673ffffffffffffffffffffffffffffffffffffffff16815260200190815260200160002054905081811015611f26576040517f08c379a0000000000000000000000000000000000000000000000000000000008152600401611f1d90612a0b565b60405180910390fd5b818103603360008573ffffffffffffffffffffffffffffffffffffffff1673ffffffffffffffffffffffffffffffffffffffff168152602001908152602001600020819055508160356000828254611f7e9190612e04565b92505081905550600073ffffffffffffffffffffffffffffffffffffffff168373ffffffffffffffffffffffffffffffffffffffff167fddf252ad1be2c89b69c2b068fc378daa952ba7f163c4a11628f55a4df523b3ef84604051611fe39190612c82565b60405180910390a3611ff783600084612001565b505050565b505050565b505050565b6000612068826040518060400160405280602081526020017f5361666545524332303a206c6f772d6c6576656c2063616c6c206661696c65648152508573ffffffffffffffffffffffffffffffffffffffff166120cd9092919063ffffffff16565b90506000815111156120c8578080602001905181019061208891906123a4565b6120c7576040517f08c379a00000000000000000000000000000000000000000000000000000000081526004016120be90612bab565b60405180910390fd5b5b505050565b60606120dc84846000856120e5565b90509392505050565b60608247101561212a576040517f08c379a000000000000000000000000000000000000000000000000000000000815260040161212190612acb565b60405180910390fd5b6121338561150a565b612172576040517f08c379a000000000000000000000000000000000000000000000000000000000815260040161216990612b6b565b60405180910390fd5b6000808673ffffffffffffffffffffffffffffffffffffffff16858760405161219b91906128df565b60006040518083038185875af1925050503d80600081146121d8576040519150601f19603f3d011682016040523d82523d6000602084013e6121dd565b606091505b50915091506121ed8282866121f9565b92505050949350505050565b6060831561220957829050612259565b60008351111561221c5782518084602001fd5b816040517f08c379a000000000000000000000000000000000000000000000000000000000815260040161225091906129c9565b60405180910390fd5b9392505050565b60008135905061226f816134f1565b92915050565b60008151905061228481613508565b92915050565b6000813590506122998161351f565b92915050565b6000815190506122ae8161351f565b92915050565b6000602082840312156122c657600080fd5b60006122d484828501612260565b91505092915050565b600080604083850312156122f057600080fd5b60006122fe85828601612260565b925050602061230f85828601612260565b9150509250929050565b60008060006060848603121561232e57600080fd5b600061233c86828701612260565b935050602061234d86828701612260565b925050604061235e8682870161228a565b9150509250925092565b6000806040838503121561237b57600080fd5b600061238985828601612260565b925050602061239a8582860161228a565b9150509250929050565b6000602082840312156123b657600080fd5b60006123c484828501612275565b91505092915050565b6000602082840312156123df57600080fd5b60006123ed8482850161228a565b91505092915050565b60006020828403121561240857600080fd5b60006124168482850161229f565b91505092915050565b600061242b83836128b2565b60208301905092915050565b61244081612e4a565b82525050565b61244f81612e38565b82525050565b61245e81612e38565b82525050565b600061246f82612cc8565b6124798185612cf6565b935061248483612cb8565b8060005b838110156124b557815161249c888261241f565b97506124a783612ce9565b925050600181019050612488565b5085935050505092915050565b6124cb81612e5c565b82525050565b60006124dc82612cd3565b6124e68185612d07565b93506124f6818560208601612ed2565b80840191505092915050565b61250b81612eae565b82525050565b600061251c82612cde565b6125268185612d12565b9350612536818560208601612ed2565b61253f8161300d565b840191505092915050565b6000612557602383612d12565b91506125628261301e565b604082019050919050565b600061257a602283612d12565b91506125858261306d565b604082019050919050565b600061259d602283612d12565b91506125a8826130bc565b604082019050919050565b60006125c0601683612d12565b91506125cb8261310b565b602082019050919050565b60006125e3601d83612d12565b91506125ee82613134565b602082019050919050565b6000612606602083612d12565b91506126118261315d565b602082019050919050565b6000612629602683612d12565b915061263482613186565b604082019050919050565b600061264c602683612d12565b9150612657826131d5565b604082019050919050565b600061266f602183612d12565b915061267a82613224565b604082019050919050565b6000612692602583612d12565b915061269d82613273565b604082019050919050565b60006126b5602a83612d12565b91506126c0826132c2565b604082019050919050565b60006126d8602483612d12565b91506126e382613311565b604082019050919050565b60006126fb601d83612d12565b915061270682613360565b602082019050919050565b600061271e602483612d12565b915061272982613389565b604082019050919050565b6000612741602a83612d12565b915061274c826133d8565b604082019050919050565b6000612764601a83612d12565b915061276f82613427565b602082019050919050565b6000612787601a83612d12565b915061279282613450565b602082019050919050565b60006127aa602583612d12565b91506127b582613479565b604082019050919050565b60006127cd601f83612d12565b91506127d8826134c8565b602082019050919050565b610100820160008201516127fa6000850182612446565b50602082015161280d6020850182612446565b5060408201516128206040850182612894565b5060608201516128336060850182612446565b50608082015161284660808501826128b2565b5060a082015161285960a08501826128b2565b5060c082015161286c60c08501826128b2565b5060e082015161287f60e0850182612885565b50505050565b61288e81612e68565b82525050565b61289d81612e88565b82525050565b6128ac81612e88565b82525050565b6128bb81612e97565b82525050565b6128ca81612e97565b82525050565b6128d981612ea1565b82525050565b60006128eb82846124d1565b915081905092915050565b600060208201905061290b6000830184612455565b92915050565b60006020820190506129266000830184612437565b92915050565b60006040820190506129416000830185612455565b61294e60208301846128c1565b9392505050565b600060608201905061296a6000830186612455565b61297760208301856128c1565b81810360408301526129898184612464565b9050949350505050565b60006020820190506129a860008301846124c2565b92915050565b60006020820190506129c36000830184612502565b92915050565b600060208201905081810360008301526129e38184612511565b905092915050565b60006020820190508181036000830152612a048161254a565b9050919050565b60006020820190508181036000830152612a248161256d565b9050919050565b60006020820190508181036000830152612a4481612590565b9050919050565b60006020820190508181036000830152612a64816125b3565b9050919050565b60006020820190508181036000830152612a84816125d6565b9050919050565b60006020820190508181036000830152612aa4816125f9565b9050919050565b60006020820190508181036000830152612ac48161261c565b9050919050565b60006020820190508181036000830152612ae48161263f565b9050919050565b60006020820190508181036000830152612b0481612662565b9050919050565b60006020820190508181036000830152612b2481612685565b9050919050565b60006020820190508181036000830152612b44816126a8565b9050919050565b60006020820190508181036000830152612b64816126cb565b9050919050565b60006020820190508181036000830152612b84816126ee565b9050919050565b60006020820190508181036000830152612ba481612711565b9050919050565b60006020820190508181036000830152612bc481612734565b9050919050565b60006020820190508181036000830152612be481612757565b9050919050565b60006020820190508181036000830152612c048161277a565b9050919050565b60006020820190508181036000830152612c248161279d565b9050919050565b60006020820190508181036000830152612c44816127c0565b9050919050565b600061010082019050612c6160008301846127e3565b92915050565b6000602082019050612c7c60008301846128a3565b92915050565b6000602082019050612c9760008301846128c1565b92915050565b6000602082019050612cb260008301846128d0565b92915050565b6000819050602082019050919050565b600081519050919050565b600081519050919050565b600081519050919050565b6000602082019050919050565b600082825260208201905092915050565b600081905092915050565b600082825260208201905092915050565b6000612d2e82612e97565b9150612d3983612e97565b9250827fffffffffffffffffffffffffffffffffffffffffffffffffffffffffffffffff03821115612d6e57612d6d612f80565b5b828201905092915050565b6000612d8482612e97565b9150612d8f83612e97565b925082612d9f57612d9e612faf565b5b828204905092915050565b6000612db582612e97565b9150612dc083612e97565b9250817fffffffffffffffffffffffffffffffffffffffffffffffffffffffffffffffff0483118215151615612df957612df8612f80565b5b828202905092915050565b6000612e0f82612e97565b9150612e1a83612e97565b925082821015612e2d57612e2c612f80565b5b828203905092915050565b6000612e4382612e68565b9050919050565b6000612e5582612e68565b9050919050565b60008115159050919050565b600073ffffffffffffffffffffffffffffffffffffffff82169050919050565b600062ffffff82169050919050565b6000819050919050565b600060ff82169050919050565b6000612eb982612ec0565b9050919050565b6000612ecb82612e68565b9050919050565b60005b83811015612ef0578082015181840152602081019050612ed5565b83811115612eff576000848401525b50505050565b60006002820490506001821680612f1d57607f821691505b60208210811415612f3157612f30612fde565b5b50919050565b6000612f4282612e97565b91507fffffffffffffffffffffffffffffffffffffffffffffffffffffffffffffffff821415612f7557612f74612f80565b5b600182019050919050565b7f4e487b7100000000000000000000000000000000000000000000000000000000600052601160045260246000fd5b7f4e487b7100000000000000000000000000000000000000000000000000000000600052601260045260246000fd5b7f4e487b7100000000000000000000000000000000000000000000000000000000600052602260045260246000fd5b6000601f19601f8301169050919050565b7f45524332303a207472616e7366657220746f20746865207a65726f206164647260008201527f6573730000000000000000000000000000000000000000000000000000000000602082015250565b7f45524332303a206275726e20616d6f756e7420657863656564732062616c616e60008201527f6365000000000000000000000000000000000000000000000000000000000000602082015250565b7f45524332303a20617070726f766520746f20746865207a65726f20616464726560008201527f7373000000000000000000000000000000000000000000000000000000000000602082015250565b7f6d7573742073656e6420657468657220746f2062757900000000000000000000600082015250565b7f45524332303a20696e73756666696369656e7420616c6c6f77616e6365000000600082015250565b7f6d757374206265206d616e6167657220746f2077697468647261772066656573600082015250565b7f45524332303a207472616e7366657220616d6f756e742065786365656473206260008201527f616c616e63650000000000000000000000000000000000000000000000000000602082015250565b7f416464726573733a20696e73756666696369656e742062616c616e636520666f60008201527f722063616c6c0000000000000000000000000000000000000000000000000000602082015250565b7f45524332303a206275726e2066726f6d20746865207a65726f2061646472657360008201527f7300000000000000000000000000000000000000000000000000000000000000602082015250565b7f45524332303a207472616e736665722066726f6d20746865207a65726f20616460008201527f6472657373000000000000000000000000000000000000000000000000000000602082015250565b7f6574682073656e7420697320746f6f20736d616c6c20746f2063616c63756c6160008201527f746520616d6f756e747300000000000000000000000000000000000000000000602082015250565b7f45524332303a20617070726f76652066726f6d20746865207a65726f2061646460008201527f7265737300000000000000000000000000000000000000000000000000000000602082015250565b7f416464726573733a2063616c6c20746f206e6f6e2d636f6e7472616374000000600082015250565b7f616d6f756e7420746f20627579206d757374206265206772656174657220746860008201527f616e203000000000000000000000000000000000000000000000000000000000602082015250565b7f5361666545524332303a204552433230206f7065726174696f6e20646964206e60008201527f6f74207375636365656400000000000000000000000000000000000000000000602082015250565b7f4d7573742070617373206e6f6e20302066656520616d6f756e74000000000000600082015250565b7f4d7573742070617373206e6f6e20302045544820616d6f756e74000000000000600082015250565b7f45524332303a2064656372656173656420616c6c6f77616e63652062656c6f7760008201527f207a65726f000000000000000000000000000000000000000000000000000000602082015250565b7f45524332303a206d696e7420746f20746865207a65726f206164647265737300600082015250565b6134fa81612e38565b811461350557600080fd5b50565b61351181612e5c565b811461351c57600080fd5b50565b61352881612e97565b811461353357600080fd5b5056fea26469706673582212208bb5c2f0d71d65dd80af501a3643b13f5c5d4b269047348c4b8e611d036ef1a464736f6c63430008040033a2646970667358221220eb811c4adf51a28c8916adecd02c16953e7d78b4b332bff3817557a9f5275dd764736f6c63430008040033",
  "linkReferences": {},
  "deployedLinkReferences": {}
}