{
  "_format": "hh-sol-artifact-1",
  "contractName": "IndexDeployer",
  "sourceName": "contracts/IndexDeployer.sol",
  "abi": [
    {
      "inputs": [],
      "stateMutability": "nonpayable",
      "type": "constructor"
    },
    {
      "anonymous": false,
      "inputs": [
        {
          "indexed": false,
          "internalType": "address",
          "name": "child",
          "type": "address"
        }
      ],
      "name": "LogDeployedIndexContract",
      "type": "event"
    },
    {
      "inputs": [
        {
          "internalType": "string",
          "name": "_name",
          "type": "string"
        },
        {
          "internalType": "string",
          "name": "_symbol",
          "type": "string"
        },
        {
          "internalType": "address[]",
          "name": "_composition",
          "type": "address[]"
        },
        {
          "internalType": "uint256[]",
          "name": "_decimals",
          "type": "uint256[]"
        },
        {
          "internalType": "uint256[]",
          "name": "_percentages",
          "type": "uint256[]"
        },
        {
          "internalType": "uint256",
          "name": "_managerFee",
          "type": "uint256"
        }
      ],
      "name": "createIndex",
      "outputs": [],
      "stateMutability": "nonpayable",
      "type": "function"
    },
    {
      "inputs": [
        {
          "internalType": "uint256",
          "name": "",
          "type": "uint256"
        }
      ],
      "name": "indexes",
      "outputs": [
        {
          "internalType": "address",
          "name": "",
          "type": "address"
        }
      ],
      "stateMutability": "view",
      "type": "function"
    },
    {
      "inputs": [
        {
          "internalType": "address",
          "name": "_nativeCurrency",
          "type": "address"
        },
        {
          "internalType": "uint256",
          "name": "_chainId",
          "type": "uint256"
        }
      ],
      "name": "setNativeCurrencyForChainId",
      "outputs": [],
      "stateMutability": "nonpayable",
      "type": "function"
    },
    {
      "inputs": [
        {
          "internalType": "address",
          "name": "_owner",
          "type": "address"
        }
      ],
      "name": "setOwner",
      "outputs": [],
      "stateMutability": "nonpayable",
      "type": "function"
    }
  ],
  "bytecode": "0x608060405234801561001057600080fd5b50336000806101000a81548173ffffffffffffffffffffffffffffffffffffffff021916908373ffffffffffffffffffffffffffffffffffffffff160217905550612b20806100606000396000f3fe60806040523480156200001157600080fd5b5060043610620000525760003560e01c806313af4035146200005757806392f8eb941462000077578063d65d783514620000ad578063e1a77b6d14620000cd575b600080fd5b6200007560048036038101906200006f9190620005ce565b620000ed565b005b6200009560048036038101906200008f91906200074e565b62000189565b604051620000a4919062000907565b60405180910390f35b620000cb6004803603810190620000c59190620005fa565b620001c9565b005b620000eb6004803603810190620000e591906200063b565b62000278565b005b60008054906101000a900473ffffffffffffffffffffffffffffffffffffffff1673ffffffffffffffffffffffffffffffffffffffff163373ffffffffffffffffffffffffffffffffffffffff16146200014657600080fd5b806000806101000a81548173ffffffffffffffffffffffffffffffffffffffff021916908373ffffffffffffffffffffffffffffffffffffffff16021790555050565b600181815481106200019a57600080fd5b906000526020600020016000915054906101000a900473ffffffffffffffffffffffffffffffffffffffff1681565b60008054906101000a900473ffffffffffffffffffffffffffffffffffffffff1673ffffffffffffffffffffffffffffffffffffffff163373ffffffffffffffffffffffffffffffffffffffff16146200022257600080fd5b816002600083815260200190815260200160002060006101000a81548173ffffffffffffffffffffffffffffffffffffffff021916908373ffffffffffffffffffffffffffffffffffffffff1602179055505050565b60006002600046815260200190815260200160002060009054906101000a900473ffffffffffffffffffffffffffffffffffffffff169050600073ffffffffffffffffffffffffffffffffffffffff168173ffffffffffffffffffffffffffffffffffffffff161415620002eb57600080fd5b600087878787873388886040516200030390620003dc565b6200031698979695949392919062000924565b604051809103906000f08015801562000333573d6000803e3d6000fd5b5090507fd2c412b7fda55a002eaf4c77cc4accf336368388dc7084706b0edc55025520a78160405162000367919062000907565b60405180910390a16001819080600181540180825580915050600190039060005260206000200160009091909190916101000a81548173ffffffffffffffffffffffffffffffffffffffff021916908373ffffffffffffffffffffffffffffffffffffffff1602179055505050505050505050565b611e9d8062000c4e83390190565b600062000401620003fb84620009fe565b620009d5565b905080838252602082019050828560208602820111156200042157600080fd5b60005b858110156200045557816200043a888262000519565b84526020840193506020830192505060018101905062000424565b5050509392505050565b600062000476620004708462000a2d565b620009d5565b905080838252602082019050828560208602820111156200049657600080fd5b60005b85811015620004ca5781620004af8882620005b7565b84526020840193506020830192505060018101905062000499565b5050509392505050565b6000620004eb620004e58462000a5c565b620009d5565b9050828152602081018484840111156200050457600080fd5b6200051184828562000b5e565b509392505050565b6000813590506200052a8162000c19565b92915050565b600082601f8301126200054257600080fd5b813562000554848260208601620003ea565b91505092915050565b600082601f8301126200056f57600080fd5b8135620005818482602086016200045f565b91505092915050565b600082601f8301126200059c57600080fd5b8135620005ae848260208601620004d4565b91505092915050565b600081359050620005c88162000c33565b92915050565b600060208284031215620005e157600080fd5b6000620005f18482850162000519565b91505092915050565b600080604083850312156200060e57600080fd5b60006200061e8582860162000519565b92505060206200063185828601620005b7565b9150509250929050565b60008060008060008060c087890312156200065557600080fd5b600087013567ffffffffffffffff8111156200067057600080fd5b6200067e89828a016200058a565b965050602087013567ffffffffffffffff8111156200069c57600080fd5b620006aa89828a016200058a565b955050604087013567ffffffffffffffff811115620006c857600080fd5b620006d689828a0162000530565b945050606087013567ffffffffffffffff811115620006f457600080fd5b6200070289828a016200055d565b935050608087013567ffffffffffffffff8111156200072057600080fd5b6200072e89828a016200055d565b92505060a06200074189828a01620005b7565b9150509295509295509295565b6000602082840312156200076157600080fd5b60006200077184828501620005b7565b91505092915050565b6000620007888383620007ae565b60208301905092915050565b6000620007a28383620008e5565b60208301905092915050565b620007b98162000b20565b82525050565b620007ca8162000b20565b82525050565b6000620007dd8262000ab2565b620007e9818562000aed565b9350620007f68362000a92565b8060005b838110156200082d5781516200081188826200077a565b97506200081e8362000ad3565b925050600181019050620007fa565b5085935050505092915050565b6000620008478262000abd565b62000853818562000afe565b9350620008608362000aa2565b8060005b83811015620008975781516200087b888262000794565b9750620008888362000ae0565b92505060018101905062000864565b5085935050505092915050565b6000620008b18262000ac8565b620008bd818562000b0f565b9350620008cf81856020860162000b6d565b620008da8162000c08565b840191505092915050565b620008f08162000b54565b82525050565b620009018162000b54565b82525050565b60006020820190506200091e6000830184620007bf565b92915050565b600061010082019050818103600083015262000941818b620008a4565b9050818103602083015262000957818a620008a4565b905081810360408301526200096d8189620007d0565b905081810360608301526200098381886200083a565b905081810360808301526200099981876200083a565b9050620009aa60a0830186620007bf565b620009b960c0830185620008f6565b620009c860e0830184620007bf565b9998505050505050505050565b6000620009e1620009f4565b9050620009ef828262000ba3565b919050565b6000604051905090565b600067ffffffffffffffff82111562000a1c5762000a1b62000bd9565b5b602082029050602081019050919050565b600067ffffffffffffffff82111562000a4b5762000a4a62000bd9565b5b602082029050602081019050919050565b600067ffffffffffffffff82111562000a7a5762000a7962000bd9565b5b62000a858262000c08565b9050602081019050919050565b6000819050602082019050919050565b6000819050602082019050919050565b600081519050919050565b600081519050919050565b600081519050919050565b6000602082019050919050565b6000602082019050919050565b600082825260208201905092915050565b600082825260208201905092915050565b600082825260208201905092915050565b600062000b2d8262000b34565b9050919050565b600073ffffffffffffffffffffffffffffffffffffffff82169050919050565b6000819050919050565b82818337600083830152505050565b60005b8381101562000b8d57808201518184015260208101905062000b70565b8381111562000b9d576000848401525b50505050565b62000bae8262000c08565b810181811067ffffffffffffffff8211171562000bd05762000bcf62000bd9565b5b80604052505050565b7f4e487b7100000000000000000000000000000000000000000000000000000000600052604160045260246000fd5b6000601f19601f8301169050919050565b62000c248162000b20565b811462000c3057600080fd5b50565b62000c3e8162000b54565b811462000c4a57600080fd5b5056fe60806040523480156200001157600080fd5b5060405162001e9d38038062001e9d8339818101604052810190620000379190620004c4565b87878160039080519060200190620000519291906200014f565b5080600490805190602001906200006a9291906200014f565b505050856005908051906020019062000085929190620001e0565b5084600690805190602001906200009e9291906200026f565b508360079080519060200190620000b79291906200026f565b5082600860006101000a81548173ffffffffffffffffffffffffffffffffffffffff021916908373ffffffffffffffffffffffffffffffffffffffff1602179055508160098190555080600a60006101000a81548173ffffffffffffffffffffffffffffffffffffffff021916908373ffffffffffffffffffffffffffffffffffffffff160217905550505050505050505062000844565b8280546200015d9062000735565b90600052602060002090601f016020900481019282620001815760008555620001cd565b82601f106200019c57805160ff1916838001178555620001cd565b82800160010185558215620001cd579182015b82811115620001cc578251825591602001919060010190620001af565b5b509050620001dc9190620002c1565b5090565b8280548282559060005260206000209081019282156200025c579160200282015b828111156200025b5782518260006101000a81548173ffffffffffffffffffffffffffffffffffffffff021916908373ffffffffffffffffffffffffffffffffffffffff1602179055509160200191906001019062000201565b5b5090506200026b9190620002c1565b5090565b828054828255906000526020600020908101928215620002ae579160200282015b82811115620002ad57825182559160200191906001019062000290565b5b509050620002bd9190620002c1565b5090565b5b80821115620002dc576000816000905550600101620002c2565b5090565b6000620002f7620002f1846200062d565b62000604565b905080838252602082019050828560208602820111156200031757600080fd5b60005b858110156200034b57816200033088826200040f565b8452602084019350602083019250506001810190506200031a565b5050509392505050565b60006200036c62000366846200065c565b62000604565b905080838252602082019050828560208602820111156200038c57600080fd5b60005b85811015620003c05781620003a58882620004ad565b8452602084019350602083019250506001810190506200038f565b5050509392505050565b6000620003e1620003db846200068b565b62000604565b905082815260208101848484011115620003fa57600080fd5b62000407848285620006ff565b509392505050565b600081519050620004208162000810565b92915050565b600082601f8301126200043857600080fd5b81516200044a848260208601620002e0565b91505092915050565b600082601f8301126200046557600080fd5b81516200047784826020860162000355565b91505092915050565b600082601f8301126200049257600080fd5b8151620004a4848260208601620003ca565b91505092915050565b600081519050620004be816200082a565b92915050565b600080600080600080600080610100898b031215620004e257600080fd5b600089015167ffffffffffffffff811115620004fd57600080fd5b6200050b8b828c0162000480565b985050602089015167ffffffffffffffff8111156200052957600080fd5b620005378b828c0162000480565b975050604089015167ffffffffffffffff8111156200055557600080fd5b620005638b828c0162000426565b965050606089015167ffffffffffffffff8111156200058157600080fd5b6200058f8b828c0162000453565b955050608089015167ffffffffffffffff811115620005ad57600080fd5b620005bb8b828c0162000453565b94505060a0620005ce8b828c016200040f565b93505060c0620005e18b828c01620004ad565b92505060e0620005f48b828c016200040f565b9150509295985092959890939650565b60006200061062000623565b90506200061e82826200076b565b919050565b6000604051905090565b600067ffffffffffffffff8211156200064b576200064a620007d0565b5b602082029050602081019050919050565b600067ffffffffffffffff8211156200067a5762000679620007d0565b5b602082029050602081019050919050565b600067ffffffffffffffff821115620006a957620006a8620007d0565b5b620006b482620007ff565b9050602081019050919050565b6000620006ce82620006d5565b9050919050565b600073ffffffffffffffffffffffffffffffffffffffff82169050919050565b6000819050919050565b60005b838110156200071f57808201518184015260208101905062000702565b838111156200072f576000848401525b50505050565b600060028204905060018216806200074e57607f821691505b60208210811415620007655762000764620007a1565b5b50919050565b6200077682620007ff565b810181811067ffffffffffffffff82111715620007985762000797620007d0565b5b80604052505050565b7f4e487b7100000000000000000000000000000000000000000000000000000000600052602260045260246000fd5b7f4e487b7100000000000000000000000000000000000000000000000000000000600052604160045260246000fd5b6000601f19601f8301169050919050565b6200081b81620006c1565b81146200082757600080fd5b50565b6200083581620006f5565b81146200084157600080fd5b50565b61164980620008546000396000f3fe608060405234801561001057600080fd5b506004361061012c5760003560e01c806370a08231116100ad578063a457c2d711610071578063a457c2d71461035f578063a9059cbb1461038f578063d58f0263146103bf578063dd62ed3e146103ef578063f88583861461041f5761012c565b806370a08231146102a55780638609f458146102d55780638dae88c21461030557806395d89b41146103235780639c7632fc146103415761012c565b806323b872dd116100f457806323b872dd146101eb578063313ce5671461021b57806332fe7b26146102395780633950935114610257578063481c6a75146102875761012c565b8063029447cc1461013157806306fdde031461014f578063095ea7b31461016d57806318160ddd1461019d5780631b54cc88146101bb575b600080fd5b61013961044f565b604051610146919061105b565b60405180910390f35b610157610475565b60405161016491906110c7565b60405180910390f35b61018760048036038101906101829190610e6e565b610507565b6040516101949190611076565b60405180910390f35b6101a561052a565b6040516101b291906111c9565b60405180910390f35b6101d560048036038101906101d09190610de3565b610534565b6040516101e291906111c9565b60405180910390f35b61020560048036038101906102009190610e1f565b610559565b6040516102129190611076565b60405180910390f35b610223610588565b60405161023091906111e4565b60405180910390f35b610241610591565b60405161024e91906110ac565b60405180910390f35b610271600480360381019061026c9190610e6e565b6105a9565b60405161027e9190611076565b60405180910390f35b61028f6105e0565b60405161029c919061105b565b60405180910390f35b6102bf60048036038101906102ba9190610dba565b610606565b6040516102cc91906111c9565b60405180910390f35b6102ef60048036038101906102ea9190610eaa565b61064e565b6040516102fc91906111c9565b60405180910390f35b61030d610672565b60405161031a9190611091565b60405180910390f35b61032b61068a565b60405161033891906110c7565b60405180910390f35b61034961071c565b60405161035691906111c9565b60405180910390f35b61037960048036038101906103749190610e6e565b610722565b6040516103869190611076565b60405180910390f35b6103a960048036038101906103a49190610e6e565b610799565b6040516103b69190611076565b60405180910390f35b6103d960048036038101906103d49190610eaa565b6107bc565b6040516103e6919061105b565b60405180910390f35b61040960048036038101906104049190610de3565b6107fb565b60405161041691906111c9565b60405180910390f35b61043960048036038101906104349190610eaa565b610882565b60405161044691906111c9565b60405180910390f35b600a60009054906101000a900473ffffffffffffffffffffffffffffffffffffffff1681565b60606003805461048490611341565b80601f01602080910402602001604051908101604052809291908181526020018280546104b090611341565b80156104fd5780601f106104d2576101008083540402835291602001916104fd565b820191906000526020600020905b8154815290600101906020018083116104e057829003601f168201915b5050505050905090565b6000806105126108a6565b905061051f8185856108ae565b600191505092915050565b6000600254905090565b600b602052816000526040600020602052806000526040600020600091509150505481565b6000806105646108a6565b9050610571858285610a79565b61057c858585610b05565b60019150509392505050565b60006012905090565b73e592427a0aece92de3edee1f18e0157c0586156481565b6000806105b46108a6565b90506105d58185856105c685896107fb565b6105d0919061121b565b6108ae565b600191505092915050565b600860009054906101000a900473ffffffffffffffffffffffffffffffffffffffff1681565b60008060008373ffffffffffffffffffffffffffffffffffffffff1673ffffffffffffffffffffffffffffffffffffffff168152602001908152602001600020549050919050565b6006818154811061065e57600080fd5b906000526020600020016000915090505481565b73b27308f9f90d607463bb33ea1bebb41c27ce5ab681565b60606004805461069990611341565b80601f01602080910402602001604051908101604052809291908181526020018280546106c590611341565b80156107125780601f106106e757610100808354040283529160200191610712565b820191906000526020600020905b8154815290600101906020018083116106f557829003601f168201915b5050505050905090565b60095481565b60008061072d6108a6565b9050600061073b82866107fb565b905083811015610780576040517f08c379a0000000000000000000000000000000000000000000000000000000008152600401610777906111a9565b60405180910390fd5b61078d82868684036108ae565b60019250505092915050565b6000806107a46108a6565b90506107b1818585610b05565b600191505092915050565b600581815481106107cc57600080fd5b906000526020600020016000915054906101000a900473ffffffffffffffffffffffffffffffffffffffff1681565b6000600160008473ffffffffffffffffffffffffffffffffffffffff1673ffffffffffffffffffffffffffffffffffffffff16815260200190815260200160002060008373ffffffffffffffffffffffffffffffffffffffff1673ffffffffffffffffffffffffffffffffffffffff16815260200190815260200160002054905092915050565b6007818154811061089257600080fd5b906000526020600020016000915090505481565b600033905090565b600073ffffffffffffffffffffffffffffffffffffffff168373ffffffffffffffffffffffffffffffffffffffff16141561091e576040517f08c379a000000000000000000000000000000000000000000000000000000000815260040161091590611189565b60405180910390fd5b600073ffffffffffffffffffffffffffffffffffffffff168273ffffffffffffffffffffffffffffffffffffffff16141561098e576040517f08c379a000000000000000000000000000000000000000000000000000000000815260040161098590611109565b60405180910390fd5b80600160008573ffffffffffffffffffffffffffffffffffffffff1673ffffffffffffffffffffffffffffffffffffffff16815260200190815260200160002060008473ffffffffffffffffffffffffffffffffffffffff1673ffffffffffffffffffffffffffffffffffffffff168152602001908152602001600020819055508173ffffffffffffffffffffffffffffffffffffffff168373ffffffffffffffffffffffffffffffffffffffff167f8c5be1e5ebec7d5bd14f71427d1e84f3dd0314c0f7b2291e5b200ac8c7c3b92583604051610a6c91906111c9565b60405180910390a3505050565b6000610a8584846107fb565b90507fffffffffffffffffffffffffffffffffffffffffffffffffffffffffffffffff8114610aff5781811015610af1576040517f08c379a0000000000000000000000000000000000000000000000000000000008152600401610ae890611129565b60405180910390fd5b610afe84848484036108ae565b5b50505050565b600073ffffffffffffffffffffffffffffffffffffffff168373ffffffffffffffffffffffffffffffffffffffff161415610b75576040517f08c379a0000000000000000000000000000000000000000000000000000000008152600401610b6c90611169565b60405180910390fd5b600073ffffffffffffffffffffffffffffffffffffffff168273ffffffffffffffffffffffffffffffffffffffff161415610be5576040517f08c379a0000000000000000000000000000000000000000000000000000000008152600401610bdc906110e9565b60405180910390fd5b610bf0838383610d86565b60008060008573ffffffffffffffffffffffffffffffffffffffff1673ffffffffffffffffffffffffffffffffffffffff16815260200190815260200160002054905081811015610c76576040517f08c379a0000000000000000000000000000000000000000000000000000000008152600401610c6d90611149565b60405180910390fd5b8181036000808673ffffffffffffffffffffffffffffffffffffffff1673ffffffffffffffffffffffffffffffffffffffff16815260200190815260200160002081905550816000808573ffffffffffffffffffffffffffffffffffffffff1673ffffffffffffffffffffffffffffffffffffffff1681526020019081526020016000206000828254610d09919061121b565b925050819055508273ffffffffffffffffffffffffffffffffffffffff168473ffffffffffffffffffffffffffffffffffffffff167fddf252ad1be2c89b69c2b068fc378daa952ba7f163c4a11628f55a4df523b3ef84604051610d6d91906111c9565b60405180910390a3610d80848484610d8b565b50505050565b505050565b505050565b600081359050610d9f816115e5565b92915050565b600081359050610db4816115fc565b92915050565b600060208284031215610dcc57600080fd5b6000610dda84828501610d90565b91505092915050565b60008060408385031215610df657600080fd5b6000610e0485828601610d90565b9250506020610e1585828601610d90565b9150509250929050565b600080600060608486031215610e3457600080fd5b6000610e4286828701610d90565b9350506020610e5386828701610d90565b9250506040610e6486828701610da5565b9150509250925092565b60008060408385031215610e8157600080fd5b6000610e8f85828601610d90565b9250506020610ea085828601610da5565b9150509250929050565b600060208284031215610ebc57600080fd5b6000610eca84828501610da5565b91505092915050565b610edc81611271565b82525050565b610eeb81611283565b82525050565b610efa816112c6565b82525050565b610f09816112ea565b82525050565b6000610f1a826111ff565b610f24818561120a565b9350610f3481856020860161130e565b610f3d816113d1565b840191505092915050565b6000610f5560238361120a565b9150610f60826113e2565b604082019050919050565b6000610f7860228361120a565b9150610f8382611431565b604082019050919050565b6000610f9b601d8361120a565b9150610fa682611480565b602082019050919050565b6000610fbe60268361120a565b9150610fc9826114a9565b604082019050919050565b6000610fe160258361120a565b9150610fec826114f8565b604082019050919050565b600061100460248361120a565b915061100f82611547565b604082019050919050565b600061102760258361120a565b915061103282611596565b604082019050919050565b611046816112af565b82525050565b611055816112b9565b82525050565b60006020820190506110706000830184610ed3565b92915050565b600060208201905061108b6000830184610ee2565b92915050565b60006020820190506110a66000830184610ef1565b92915050565b60006020820190506110c16000830184610f00565b92915050565b600060208201905081810360008301526110e18184610f0f565b905092915050565b6000602082019050818103600083015261110281610f48565b9050919050565b6000602082019050818103600083015261112281610f6b565b9050919050565b6000602082019050818103600083015261114281610f8e565b9050919050565b6000602082019050818103600083015261116281610fb1565b9050919050565b6000602082019050818103600083015261118281610fd4565b9050919050565b600060208201905081810360008301526111a281610ff7565b9050919050565b600060208201905081810360008301526111c28161101a565b9050919050565b60006020820190506111de600083018461103d565b92915050565b60006020820190506111f9600083018461104c565b92915050565b600081519050919050565b600082825260208201905092915050565b6000611226826112af565b9150611231836112af565b9250827fffffffffffffffffffffffffffffffffffffffffffffffffffffffffffffffff0382111561126657611265611373565b5b828201905092915050565b600061127c8261128f565b9050919050565b60008115159050919050565b600073ffffffffffffffffffffffffffffffffffffffff82169050919050565b6000819050919050565b600060ff82169050919050565b60006112d1826112d8565b9050919050565b60006112e38261128f565b9050919050565b60006112f5826112fc565b9050919050565b60006113078261128f565b9050919050565b60005b8381101561132c578082015181840152602081019050611311565b8381111561133b576000848401525b50505050565b6000600282049050600182168061135957607f821691505b6020821081141561136d5761136c6113a2565b5b50919050565b7f4e487b7100000000000000000000000000000000000000000000000000000000600052601160045260246000fd5b7f4e487b7100000000000000000000000000000000000000000000000000000000600052602260045260246000fd5b6000601f19601f8301169050919050565b7f45524332303a207472616e7366657220746f20746865207a65726f206164647260008201527f6573730000000000000000000000000000000000000000000000000000000000602082015250565b7f45524332303a20617070726f766520746f20746865207a65726f20616464726560008201527f7373000000000000000000000000000000000000000000000000000000000000602082015250565b7f45524332303a20696e73756666696369656e7420616c6c6f77616e6365000000600082015250565b7f45524332303a207472616e7366657220616d6f756e742065786365656473206260008201527f616c616e63650000000000000000000000000000000000000000000000000000602082015250565b7f45524332303a207472616e736665722066726f6d20746865207a65726f20616460008201527f6472657373000000000000000000000000000000000000000000000000000000602082015250565b7f45524332303a20617070726f76652066726f6d20746865207a65726f2061646460008201527f7265737300000000000000000000000000000000000000000000000000000000602082015250565b7f45524332303a2064656372656173656420616c6c6f77616e63652062656c6f7760008201527f207a65726f000000000000000000000000000000000000000000000000000000602082015250565b6115ee81611271565b81146115f957600080fd5b50565b611605816112af565b811461161057600080fd5b5056fea2646970667358221220c3ab02b57350458320dd117e3012a70e4f0d00a61ff4a7461504bbc87275308864736f6c63430008040033a264697066735822122064d744776b105d754de198503c43cc6823e8eac685fae9daac4985b47bfec4cd64736f6c63430008040033",
  "linkReferences": {},
  "deployedLinkReferences": {}
}